:100000000C947C7B0C94AD7B0C94AD7B0C94AD7B01
:100010000C94AD7B0C94AD7B0C94AD7B0C94AD7BC0
:100020000C94AD7B0C94AD7B0C94AD7B0C94AD7BB0
:100030000C94AD7B0C9479CA0C94AD7B0C94AD7B85
:100040000C94AD7B0C94B1CB0C94AD7B0C94AD7B3C
:100050000C94AD7B0C94AD7B0D9499320D94733957
:100060000C94AD7B0D946F320D943F320C94AD7BAC
:100070000C94AD7B0C94AD7B0C94AD7B0C94AD7B60
:100080000C94AD7B0C94AD7B0C94AD7B0C94AD7B50
:100090000C94AD7B0C94AD7B0C94AD7B0C94AD7B40
:1000A0000C94AD7B0C94AD7B0C94AD7B0C94AD7B30
:1000B0000C94AD7B0C94AD7B0C94AD7B0C94AD7B20
:1000C0000C94AD7B0C94AD7B0C94AD7B0C94AD7B10
:1000D0000C94AD7B0C94AD7B0C94AD7B0C94AD7B00
:1000E0000C94AD7BEC81F181F68102820E829B82C1
:1000F0001A8222822A82368242824E825F826B82FA
:100100009B82778283828F823CB454B454B454B4BB
:1001100054B454B454B454B454B454B454B454B49F
:1001200054B454B454B454B454B454B454B454B48F
:1001300054B454B454B403B40DB4EFB3E5B397B3AB
:10014000A1B314B3F9B3C7B3D1B317B421B424B373
:1001500002B32BB4BDB354B4DBB3B3B3ABB354B439
:1001600054B454B479B383B38DB354B454B454B4C5
:1001700054B454B454B403B40DB4EFB3E5B397B36B
:10018000A1B314B3F9B3C7B3D1B317B421B424B333
:1001900002B32BB4BDB354B4DBB3B3B3ABB354B4F9
:1001A00054B454B479B383B38DB317011901350135
:1001B00031012101270113012F01370133011B01F7
:1001C0000F010D0111012701390115012301084A11
:1001D000D73B3BCE016E84BCBFFDC12F3D6C74315B
:1001E0009ABD56833DDA3D00C77F11BED9E4BB4CB2
:1001F0003E916BAAAABE000000803F05A84CCDB27C
:10020000D44EB93836A9020C50B9918688083CA65C
:10021000AAAA2ABE000000803F000D94AC380D94BD
:10022000A8380D94B0380D9490380D94BA380D94C8
:1002300089380D948C380D94A2380D94B72D0D94F7
:100240009E2D0D9485380D94BE380D94622D0D941D
:10025000C3380D94CC2D0D94902D0D94D1460D9452
:1002600094380D947F380D949E380D947B380D94FE
:100270009A380D94B638456E642066696C65206CBA
:1002800069737400426567696E2066696C65206CED
:10029000697374005344207072696E74696E6720CC
:1002A0006279746520004E6F742053442070726927
:1002B0006E74696E670057726974696E6720746F37
:1002C0002066696C653A20006F70656E2066616912
:1002D0006C65642C2046696C653A20004372656148
:1002E00074696F6E206661696C656400446972654B
:1002F00063746F72792063726561746564006578F8
:1003000074727564657220636F6F6C6572207370B0
:10031000656564205B302D3235355D00646973742A
:10032000616E636520746F207265747261637420FE
:100330007768656E2068656174696E67205B6D6DB6
:100340005D0074656D702E20666F72207265747228
:10035000616374696F6E207768656E20686561748B
:10036000696E67205B435D0074656D702E20737449
:100370006162696C697A652074696D65205B735D83
:10038000005A2D6F6666736574205B7374657073B5
:100390005D00592D6F6666736574205B73746570BC
:1003A000735D00582D6F6666736574205B737465AA
:1003B00070735D00504944206D61782076616C75E2
:1003C00065205B302D3235355D0050494420442D89
:1003D0006761696E0050494420492D6761696E006C
:1003E00050494420502D6761696E2F646561642D0A
:1003F00074696D6500504944206472697665206DAA
:10040000696E00504944206472697665206D617898
:100410000068656174206D616E61676572205B3094
:100420002D335D00616363656C65726174696F6E25
:10043000205B6D6D2F735E325D007374617274208A
:100440006665656472617465205B6D6D2F735D0018
:100450006D61782E206665656472617465205B6DE0
:100460006D2F735D00737465707320706572206DFD
:100470006D0052657472616374696F6E20756E648D
:100480006F207370656564004578747261206578CB
:1004900074727573696F6E206F6E20756E646F2055
:1004A00072657472616374205B6D6D5D005265747A
:1004B00072616374696F6E207A2D6C696674205B5B
:1004C0006D6D5D0052657472616374696F6E207347
:1004D00070656564205B6D6D2F735D00526574728D
:1004E000616374696F6E206C656E677468205B6D04
:1004F0006D5D00456E61626C65207265747261634A
:1005000074696F6E20636F6E76657273696F6E20AB
:100510005B302F315D0042656420504944206D619D
:10052000782076616C7565205B302D3235355D0045
:100530004265642050494420442D6761696E004241
:1005400065642050494420492D6761696E00426509
:10055000642050494420502D6761696E00426564F3
:1005600020504944206472697665206D696E0042AE
:10057000656420504944206472697665206D617815
:10058000004265642048656174204D616E61676555
:1005900072205B302D335D004175746F6C6576653C
:1005A0006C206163746976652028312F3029005AE8
:1005B0002D70726F62652062656E64696E6720637C
:1005C0006F7272656374696F6E2043205B6D6D5D41
:1005D000005A2D70726F62652062656E64696E6785
:1005E00020636F7272656374696F6E2042205B6D69
:1005F0006D5D005A2D70726F62652062656E646970
:100600006E6720636F7272656374696F6E2041203C
:100610005B6D6D5D005A2D70726F626520593320DD
:100620005B6D6D5D005A2D70726F626520583320CE
:100630005B6D6D5D005A2D70726F626520593220BE
:100640005B6D6D5D005A2D70726F626520583220AF
:100650005B6D6D5D005A2D70726F6265205931209F
:100660005B6D6D5D005A2D70726F62652058312090
:100670005B6D6D5D005A2D70726F6265206F6666EE
:100680007365742079205B6D6D5D005A2D70726FFB
:100690006265206F66667365742078205B6D6D5DA2
:1006A000005A2D70726F626520782D792D737065F8
:1006B0006564205B6D6D2F735D005A2D70726F62E3
:1006C00065207370656564205B6D6D2F735D004DF3
:1006D00061782E207A2D70726F6265202D20626500
:1006E0006420646973742E205B6D6D5D005A2D70FB
:1006F000726F626520686569676874205B6D6D5D07
:1007000000436F6174696E6720746869636B6E651E
:100710007373205B6D6D5D005A2D61786973207471
:10072000726176656C20616363656C657261746982
:100730006F6E205B6D6D2F735E325D00592D617899
:1007400069732074726176656C20616363656C65A2
:10075000726174696F6E205B6D6D2F735E325D0028
:10076000582D617869732074726176656C206163BD
:1007700063656C65726174696F6E205B6D6D2F735C
:100780005E325D005A2D6178697320616363656C28
:1007900065726174696F6E205B6D6D2F735E325D83
:1007A00000592D6178697320616363656C657261BE
:1007B00074696F6E205B6D6D2F735E325D00582D16
:1007C0006178697320616363656C65726174696FD8
:1007D0006E205B6D6D2F735E325D005A206D617807
:1007E000206C656E677468205B6D6D5D0059206DCF
:1007F0006178206C656E677468205B6D6D5D005874
:10080000206D6178206C656E677468205B6D6D5D2E
:10081000005A206D696E20706F73205B6D6D5D00F6
:1008200059206D696E20706F73205B6D6D5D00588F
:10083000206D696E20706F73205B6D6D5D004D6182
:10084000782E205A2D6A65726B205B6D6D2F735D5B
:10085000004D61782E206A65726B205B6D6D2F7381
:100860005D005A2D6178697320686F6D696E67202D
:100870006665656472617465205B6D6D2F735D00E4
:10088000592D6178697320686F6D696E67206665A0
:10089000656472617465205B6D6D2F735D00582D0A
:1008A0006178697320686F6D696E6720666565643D
:1008B00072617465205B6D6D2F735D005A2D6178D8
:1008C0006973206D61782E20666565647261746558
:1008D000205B6D6D2F735D00592D61786973206DFC
:1008E00061782E206665656472617465205B6D6D4C
:1008F0002F735D00582D61786973206D61782E200B
:100900006665656472617465205B6D6D2F735D0053
:100910005A2D6178697320737465707320706572E5
:10092000206D6D00592D6178697320737465707343
:1009300020706572206D6D00582D61786973207389
:100940007465707320706572206D6D0053746F70E4
:1009500020737465707065722061667465722069B9
:100960006E6163746976697479205B6D732C303DB8
:100970006F66665D004D61782E20696E61637469F3
:1009800076652074696D65205B6D732C303D6F66F4
:10099000665D005072696E74657220616374697679
:1009A00065205B735D0046696C616D656E742070D7
:1009B00072696E746564205B6D5D0042617564727E
:1009C000617465004C616E677561676500504944EC
:1009D000204175746F74756E65206661696C65641D
:1009E000212074696D656F7574005049442041750C
:1009F000746F74756E65206661696C65642120543E
:100A0000656D706572617475726520746F6F2068B2
:100A100069676800204B643A2000204B693A200047
:100A2000204B703A200020436C617373696320503F
:100A30004944002054753A2000204B753A2000208C
:100A40006D61783A2000206D696E3A200020643A8A
:100A5000200020626961733A2000504944204175AA
:100A6000746F74756E65207374617274004E6F20BC
:100A700063617365206C6967687473004D617854B5
:100A8000656D703A004469616D657465723A004144
:100A90006363656C65726174696F6E3A004D61786D
:100AA00053706565643A004A65726B3A004D61782F
:100AB00042656454656D703A005072696E74657277
:100AC000547970653A43617274657369616E005A56
:100AD00054726176656C416363656C3A0059547277
:100AE0006176656C416363656C3A00585472617657
:100AF000656C416363656C3A005A5072696E74416B
:100B00006363656C3A00595072696E744163636542
:100B10006C3A00585072696E74416363656C3A00B8
:100B20005A53697A653A005953697A653A005853BD
:100B3000697A653A005A4D61783A00594D61783AC0
:100B400000584D61783A005A4D696E3A00594D6926
:100B50006E3A00584D696E3A005265747261637462
:100B6000696F6E556E646F53706565643A005265C7
:100B70007472616374696F6E556E646F45787472D8
:100B8000614C6F6E674C656E6774683A00526574AD
:100B900072616374696F6E556E646F4578747261CB
:100BA0004C656E6774683A0052657472616374696B
:100BB0006F6E5A4C6966743A005265747261637460
:100BC000696F6E53706565643A0052657472616353
:100BD00074696F6E4C6F6E674C656E6774683A002F
:100BE00052657472616374696F6E4C656E67746888
:100BF0003A004A65726B5A3A004A65726B58593A24
:100C0000005072696E746C696E6543616368653A21
:100C100000454550524F4D3A004175746F6C6576F2
:100C2000656C3A005A50726F62653A0043617365B1
:100C30004C69676874733A00537570706F72744CC6
:100C40006F63616C46696C616D656E746368616E3B
:100C500067653A00537570706F7274473130473171
:100C6000313A005A486F6D654469723A0059486FCD
:100C70006D654469723A0058486F6D654469723A0F
:100C800000536F667477617265506F776572537742
:100C9000697463683A004C43443A0046616E323AE4
:100CA000300046616E3A005344436172643A004832
:100CB00065617465644265643A004D6978696E6780
:100CC00045787472756465723A004E756D45787436
:100CD00072756465723A00496E7075744275666625
:100CE00065723A0042617564726174653A00436FDF
:100CF0006E66696775726174696F6E20726573657F
:100D00007420746F2064656661756C74732E00695D
:100D10006E666F3A436F6E74696E75652066726FAA
:100D20006D20666174616C20737461746500005499
:100D3000657374696E6720666174616C2065727298
:100D40006F720029203D20002C0042656E64696EA0
:100D5000672061742028004A616D206465627567B0
:100D600067696E673A00436F6E6669677572617492
:100D7000696F6E206C6F616465642066726F6D20B0
:100D8000454550524F4D2E00436F6E666967757230
:100D90006174696F6E2073746F72656420746F2064
:100DA000454550524F4D2E00536574204D69637276
:100DB0006F7374657070696E6700436F6C64206553
:100DC0007874727573696F6E20646973616C6C6F8F
:100DD00077656400436F6C6420657874727573691D
:100DE0006F6E20616C6C6F77656400576174636827
:100DF000646F672066656174757265207761732022
:100E00006E6F7420636F6D70696C656420696E74B9
:100E10006F20746869732076657273696F6E210044
:100E20004175746F726574726163743A00205A4A36
:100E300065726B3A004A65726B3A0020746F20004D
:100E400053657420766F6C756D6574726963206587
:100E50007874727573696F6E20666F72206578742E
:100E60007275646572200044697361626C65642008
:100E7000766F6C756D6574726963206578747275D0
:100E800073696F6E20666F72206578747275646521
:100E90007220004D31313420004649524D574152A5
:100EA000455F4E414D453A52657065746965725FA4
:100EB000302E39322E39204649524D574152455F26
:100EC00055524C3A68747470733A2F2F676974687E
:100ED00075622E636F6D2F72657065746965722F10
:100EE00052657065746965722D4669726D776172BD
:100EF000652F2050524F544F434F4C5F564552532D
:100F0000494F4E3A312E30204D414348494E455FBE
:100F1000545950453A4D656E64656C20455854529D
:100F2000554445525F434F554E543A312052455037
:100F300045544945525F50524F544F434F4C3A33FA
:100F40000050696E2063616E206E6F7420626520B0
:100F5000736574206279204D34322C2069732069C6
:100F60006E2073656E7369746976652070696E733F
:100F70002120002069732000496C6C6567616C203A
:100F8000532076616C756520666F72204D34320097
:100F900020746F2000536574206F75747075743AF7
:100FA0002000000136372603023C3D380E0F2E305C
:100FB0003E12130DFF0A081A1C180D0E3500000012
:100FC0000000000089000000000000000088000010
:100FD0000000000000008600000000000000008506
:100FE00000C60FBD0FD80FCF0F54F5726B00506FB6
:100FF0006C736B690043657374696E610053766549
:101000006E736B610053756F6D69004974616C6933
:10101000616E6F004E656465726C616E647365002D
:101020004672616E6361697300506F7274756775A3
:10103000657300457370616E6F6C00446575747301
:10104000636800456E676C697368004175746F6C06
:1010500065766C65204D6561737572650003580493
:101060000200E10F0320040200E50F000004260443
:101070004000960000000422044000950000000497
:101080004C040000BB000000044D040000BC000044
:1010900000042E04000090000000042A0400008FC9
:1010A000000000042B0400008E000000042C04004B
:1010B000008D00000004290400008C0000000413CF
:1010C0000400005500000004120400005400000059
:1010D0000411040000530000000416040000510035
:1010E0000000041504000050000000041404000077
:1010F0004F000000040F04000038000000040E043C
:10110000000037000000040D04000035000000045A
:101110000C04000034000000040B04000033000045
:1011200000040A040000310000000409040000303B
:1011300000000004080400002F00E90F03AE2600A1
:10114000000000EE0F03AD2600000000F50F03AC19
:101150002600000000FD0F03AA2600000000051075
:1011600003AF26000000000B1003A82600000000BB
:10117000141003A62600000000201003AB26000078
:101180000000291003A72600000000331003A92641
:10119000000000003B1003A52600000000431003E0
:1011A000A426000000004B1003BF04000000000054
:1011B0000003B2040000D0000000025D10000087B0
:1011C000000000026410000084000000041004000D
:1011D000008B00B310AA10A11098108F1086107DFC
:1011E000103914301427141E1415140C1474106BB9
:1011F000100314E910E010D710CE10C510BC103148
:101200001128111F1116110D110411FB10F2109D60
:101210001194118B1182117911701167115E1155A2
:10122000114C1143113A11CA11C111B811AF11A6D5
:10123000110200001000D3110200000600F3110299
:1012400000000800FF110200000C000F1202000055
:1012500005002712417373656D626C6520636865D4
:10126000636B2077697A61726400000003070400F1
:10127000003B00000003060400003A0000000231B9
:101280001200000F00000002381200004E000000A3
:10129000023F120000390000000246120000E40084
:1012A0000000024D1200008A0000000382040000CA
:1012B0000A01000003810400003F000000038004D5
:1012C00000003E000000037F0400003D000000031A
:1012D0007E0400003C00541203C80F000000000010
:1012E0000004BD040010E300000003B9040010E195
:1012F00000000003B8040010E000000003B6040082
:1013000010DF00000003B5040010DE00000003BE83
:10131000040010DD00000003B7040010DC00000032
:1013200003B4040000D2000000031E040000830088
:101330000000031D04000082000000031C040000E4
:1013400081000000031B04000080000000031A0459
:1013500008007F00000004520400007E000000042A
:10136000B60F00000901000004B50F0000080100DD
:101370000004B40F0000070100000000000000F2AC
:101380000000000000000000AB00000000000000B2
:10139000007000000000000000006F000000035417
:1013A0002402000300000003E80300000400000022
:1013B0000100000000C900A01297128E1285127C55
:1013C000128A1873126A12D612CD12C412BB12B24C
:1013D00012A91215130C130313FA12F112E812DFFB
:1013E0001254134B1342133913301327131E136F68
:1013F0001366135D1393138A1381137813AE13A529
:10140000139C130000042F0400009B00000004261E
:101410000420009A00000004250420009900000028
:1014200004240420009800000004230420009700F6
:101430000000042204200094000000042D04000099
:1014400093000200000800B7130200000600C71353
:101450000200000700D3130200000700E11302009E
:10146000000300EF1303F0030400F5130200000370
:1014700000FD1300000000000000F7000000000065
:10148000000000DA003914301427141E1415140C4F
:1014900014031400000000000000F500000000002C
:1014A000000000F40000000000000000D600000072
:1014B0000000000000D500000002421400000D00F2
:1014C0000000024914000011000000026A1A000026
:1014D000100000000250140010D900000002571440
:1014E00000007D00000002321A00000F0000000220
:1014F0002B1A00000E00000002391A00000B000039
:10150000000000000000E00000000000000000DA21
:101510000000000000000000DF00000000000000EC
:1015200000DA0000000000000000E1000000000000
:10153000000000DA0000000000000000DE000000F3
:101540000000000000DA0000000000000000DD00E4
:1015500000000000000000DA0000000000000000B1
:10156000DC0000000000000000DA000000000000C5
:101570000000F60000000000000000F40000000081
:1015800000000000D40000000000000000D30000B4
:10159000000000000000CF0000000000000000CEAE
:1015A0000000000000000000CD000000000000006E
:1015B00000CC000000025E1400000601000002558D
:1015C0001A00002100000002401A00002200000062
:1015D000025C1A00001F00000002471A00002000F1
:1015E000000002631A00001D000000024E1A0000F5
:1015F0001E00000003000400801600000003FF032B
:1016000000801500000003FE0300801400000003AA
:10161000440400002E0000000265140000230000B6
:1016200000033A04000028000000046204000025C2
:1016300000000004610400002400000003430400D3
:10164000801C00000003310400101B000000033860
:101650000400001A00000003470400001800000006
:101660000337040000170000000388130000CB00BC
:1016700000000448040000B1000000041F04000042
:10168000B000000003FD0300801300000000000014
:1016900000006E00000000000000006D000000006F
:1016A000000000006C00000000000000006B000063
:1016B0000000000000006A00000000000000006957
:1016C00000000000000000006800000000000000B2
:1016D000006700000000000000006600000000003D
:1016E0000000006500000000000000006400000031
:1016F0000000000000630000000000000000620025
:101700000000000000000061000000000000000078
:101710006000000000000000005F0000000000000A
:1017200000005E00000000000000005D00000000FE
:10173000000000005C00000000000000005B0000F2
:101740000000000000005A000000000000000059E6
:101750000000000000000000580000000000000031
:10176000005700000003F40301024D000000026C6A
:10177000140200C900000003F70304004A0000003F
:1017800003F60302044900000003F50301024800C8
:10179000000003E80300000A000000000000000051
:1017A000A80000000000000000A7000000000000EA
:1017B0000000A60000000000000000A5007C1473DB
:1017C0001402000008008514AE14A5149C14931490
:1017D000F6148717ED14E414DB14D214C914C014E2
:1017E000B7140815FF141A1511152C1523153E15DD
:1017F0003515501547156215591586157D15741543
:101800006B15AA15A11598158F1582160416FB15D0
:10181000F215E915E015D715CE15C515BC15161628
:10182000B315311628161F1616160D1682167916C0
:10183000701667165E1655164C1643163A16A616FF
:101840009D1694168B16CA16C116B816AF16EE164C
:10185000E516DC16D316121709170017F7163617F8
:101860002D1724171B175A17511748173F1787179B
:101870007E1775176C1763179017A2179917B4176F
:10188000AB17000310270200BD17000002C11700AC
:1018900000A200058A130400C8172F2F206163746B
:1018A000696F6E3A726573756D650044656C657439
:1018B000696F6E206661696C65640046696C6520BD
:1018C00064656C65746564000200000900D0174708
:1018D00032380D204733322053320D0055495F41D5
:1018E0004354494F4E5F484F4D45414C4C200003F7
:1018F00010270200E2170310270200E61703102743
:101900000200EA170310270200EE17031027020057
:10191000F2170310270200F617526571756573748C
:1019200050617573653A00473120452D33204632AA
:1019300030300A00473120453820463230300A0026
:101940004D31303920533230300A004D313930209A
:101950005334300A004D3130370A004734205333B6
:101960000A004D31303620533130300A00473120E3
:101970005A2D3520463230300A004731205A352062
:10198000463230300A004731205935302046323057
:1019900030300A00473120592D3530204632303062
:1019A000300A004731205835302046323030300A76
:1019B00000473120582D35302046323030300A0073
:1019C0004D3434340A0047342053310A004739314A
:1019D0000A000589130400FA170588130400021889
:1019E0002F2F20616374696F6E3A706175736500A3
:1019F000696D706F7274616E743A2046696C616DC6
:101A0000656E74206368616E6765207265717569C3
:101A100072656421004A616D20636F6E74726F6C31
:101A20002064697361626C65643A000200000C0016
:101A30000A180200000500221802000009002C18F4
:101A400003FC0304003E1803FB030400461803FADA
:101A50000304004E1803EF030400561803EE0304BA
:101A6000005E1803ED030400661802000005006E16
:101A7000180100000100781803102702007A1803EB
:101A8000102702007E1855495F414354494F4E5F6D
:101A9000484F4D455F5A200055495F414354494FD7
:101AA0004E5F484F4D455F59200055495F414354B3
:101AB000494F4E5F484F4D455F58200055495F41A3
:101AC0004354494F4E5F484F4D45414C4C200020F8
:101AD00063203D20002062203D2000706C616E6517
:101AE0003A2061203D20004175746F6C6576656C0D
:101AF000696E672064697361626C65640041757426
:101B00006F6C6576656C696E6720656E61626C6589
:101B100064004731205A350D0066696E697368505C
:101B2000726F62696E6728293A20746F5A3A0066AC
:101B3000696E69736850726F62696E6728293A200E
:101B4000746F593A0066696E69736850726F6269A2
:101B50006E6728293A20746F583A0066696E697377
:101B60006850726F62696E6728293A205072696EF8
:101B70007465723A3A6F66667365745A3A006669BC
:101B80006E69736850726F62696E6728293A2050D7
:101B900072696E7465723A3A6F6666736574593A23
:101BA0000066696E69736850726F62696E67282992
:101BB0003A205072696E7465723A3A6F6666736560
:101BC00074583A0066696E69736850726F62696E24
:101BD0006728293A206F6C644F66665A3A00666936
:101BE0006E69736850726F62696E6728293A206F58
:101BF0006C644F6666593A0066696E697368507224
:101C00006F62696E6728293A206F6C644F66665868
:101C10003A00004175746F6C6576656C206D617477
:101C20007269782072657365740025206F6E2000DC
:101C3000202F20004A616D207369676E616C2073EC
:101C4000746570733A0046696C616D656E742073DB
:101C50006C697070696E6700696D706F7274616E27
:101C6000743A4578747275646572206A616D206497
:101C7000657465637465640044697361626C696E60
:101C80006720616C6C20686561746572732064758F
:101C90006520746F20646574656374656420736582
:101CA0006E736F72206465666563742E00206465D0
:101CB000672E204300206D65617375726564200096
:101CC0004572726F723A436F756C64206E6F742048
:101CD000686F6C642074656D70657261747572658F
:101CE0002000206D730020616674657220004572CB
:101CF000726F723A54656D702E20726169736564FB
:101D000020746F20736C6F772E2052697365203DAD
:101D100020004F6E6520686561746572207365658B
:101D20006D73206465636F75706C65642066726F97
:101D30006D20746865726D6973746F72202D2064F4
:101D4000697361626C696E6720616C6C20666F728A
:101D5000207361666574792100486561746572203D
:101D60006465636F75706C65640048656174656473
:101D700020626564206578636565646564206D61D3
:101D8000782074656D7065726174757265210020CC
:101D9000453A00205A3A00583A0020403A00204282
:101DA000403A00205241570020423A00202F005470
:101DB0003A0053706565644D756C7469706C793A5E
:101DC00000466C6F774D756C7469706C793A00469B
:101DD000616E73706565643A00206D696E002068FD
:101DE0006F757273200020646179732000507269EE
:101DF0006E74696E672074696D653A006D200050DD
:101E000072696E7465642066696C616D656E743AA2
:101E100000526573656E643A006F6B20004D697304
:101E200073696E67206C696E656E756D62657200B0
:101E300020676F7420004572726F723A6578706522
:101E400063746564206C696E652000736B69702033
:101E5000006F6B004563686F3A00446F6E652070D9
:101E600072696E74696E672066696C650053442000
:101E70006572726F722066697865640053442065EC
:101E800072726F7220646964206E6F742072656371
:101E90006F7665722100534420526561642045725B
:101EA000726F720053442072656164206572726FB4
:101EB00072007761697400466F726D61742065729B
:101EC000726F7200205200204A002049002050000A
:101ED000205300204600204500205A0020590020B1
:101EE0005800205072696E7465722073746F707040
:101EF000656420616E642068656174657273206436
:101F0000697361626C65642064756520746F207408
:101F1000686973206572726F722E20466978206539
:101F200072726F7220616E64207265737461727474
:101F30002077697468204D3939392E0066617461E3
:101F40006C3A00496E76616C696420617263006D61
:101F50006561737572654175746F6C6576656C50FB
:101F60006C616E6528293A20683A006D6561737569
:101F700072654175746F6C6576656C506C616E65E9
:101F800028293A2070793A006D6561737572654150
:101F900075746F6C6576656C506C616E6528293A56
:101FA0002070783A002D2D2D2D2D2D2D2D2D2D2D00
:101FB0002D2D2D2D2D2D2D2D2D2D2D2D2D2D2D2D51
:101FC0002D2D006D6561737572654175746F6C655B
:101FD00076656C506C616E6528293A2062793A000A
:101FE0006D6561737572654175746F6C6576656C4E
:101FF000506C616E6528293A2062783A006D6561FF
:10200000737572654175746F6C6576656C506C6143
:102010006E6528293A2061793A006D6561737572A1
:10202000654175746F6C6576656C506C616E652882
:10203000293A2061783A006D656173757265417562
:10204000746F6C6576656C506C616E6528293A20FA
:102050006F793A006D6561737572654175746F6C67
:102060006576656C506C616E6528293A206F783A08
:10207000006D6561737572654175746F6C65766529
:102080006C506C616E6528293A207A50726F6265D7
:10209000593328293A006D6561737572654175740D
:1020A0006F6C6576656C506C616E6528293A207A94
:1020B00050726F6265583328293A006D65617375F7
:1020C00072654175746F6C6576656C506C616E6598
:1020D00028293A207A50726F6265593228293A00CD
:1020E0006D6561737572654175746F6C6576656C4D
:1020F000506C616E6528293A207A50726F6265587B
:102100003228293A006D6561737572654175746F87
:102110006C6576656C506C616E6528293A207A5042
:10212000726F6265593128293A006D656173757265
:10213000654175746F6C6576656C506C616E652871
:10214000293A207A50726F6265583128293A006D19
:102150006561737572654175746F6C6576656C50F9
:102160006C616E6528293A204245445F4C455645CE
:102170004C494E475F52455045544954494F4E5380
:102180003A006D6561737572654175746F6C657643
:10219000656C506C616E6528293A204245445F4C5D
:1021A0004556454C494E475F475249445F53495A4B
:1021B000453A006D6561737572654175746F6C6544
:1021C00076656C506C616E6528293A204245445F03
:1021D000434F5252454354494F4E5F4D4554484F2B
:1021E000443A006D6561737572654175746F6C6515
:1021F00076656C506C616E6528293A204245445FD3
:102200004C4556454C494E475F4D4554484F443A1E
:1022100000636F72726563744175746F6C65766587
:102220006C28293A204E554D5F4D4F544F525F4414
:102230005249564552533A00636F72726563744156
:1022400075746F6C6576656C28293A204245445F49
:10225000434F5252454354494F4E5F4D4554484FAA
:10226000443A0047333220002061745A3A004375E3
:102270007272656E745A3A0072756E4265644C658E
:1022800076656C696E6728293A20636F72726563A0
:10229000744175746F6C6576656C28292066696E6B
:1022A00069736865640072756E4265644C65766535
:1022B0006C696E6728293A206D6561737572654196
:1022C00075746F6C6576656C506C616E652829203D
:1022D00066696E69736865640050726F62696E67E3
:1022E000206861642072657475726E656420657221
:1022F000726F7273202D206175746F6C6576656CDA
:10230000696E672063616E63656C65642E0072752B
:102310006E4265644C6576656C696E6728293A2063
:10232000444953544F5254494F4E5F434F525245C4
:102330004354494F4E3A0072756E4265644C65765F
:10234000656C696E6728293A204D41585F484152B3
:1023500044574152455F454E4453544F505F5A3A9B
:102360000072756E4265644C6576656C696E6728AF
:10237000293A2044454C54413A0072756E426564D6
:102380004C6576656C696E6728293A204452495637
:10239000455F53595354454D3A0052656C61746919
:1023A000766520706F736974696F6E696E6700413E
:1023B00062736F6C75746520706F736974696F6E8A
:1023C000696E6700473332206C6576656C696E67AD
:1023D000206661696C65642100473239206C65763E
:1023E000656C696E67206661696C656421004732BF
:1023F00039206C6576656C696E67206661696C650D
:10240000642100473239200041646A757374656441
:10241000207A206F726967696E005A2D70726F6240
:1024200065206176657261676520686569676874B3
:102430003A00556E6B6E6F776E20636F6D6D616ED7
:10244000643A009D1194118B1182117911701167FA
:10245000115E1155114C1143113A11000020002357
:1024600000260029002C002F00320000010000038C
:102470000106010901050505050705080808080208
:102480000202020A0A08080404040401010101010D
:102490000101010303030303030303040707070CFC
:1024A0000C0C0C0C0C0C0C020202020606060606B2
:1024B0000606060B0B0B0B0B0B0B0B01021020205F
:1024C0000808102040102040800201020108040288
:1024D00001010204081020408080402010080402FE
:1024E0000180040201804020100804020108040257
:1024F000010102040810204080010204081020405D
:102500008000000A0B02090C0D0E080703040100ED
:1025100000000000000000000000000000000000BB
:102520000000000000000000000000000012111078
:10253000000000000000000000000000000000009B
:102540000000000000000002536F6674776172653E
:10255000205265736574005761746368646F672007
:1025600052657365740042726F776E206F757420C8
:1025700052657365740045787465726E616C2052A3
:102580006573657400506F7765725570000D0E0AA3
:10259000001F1511151F1F00001C1F11111F000027
:1025A000040A0A0A0E1F1F0E001F1111111F00003E
:1025B000001F1F1F1F1F0000040A0400000000006E
:1025C000040E150404041C005A6F6E657374617266
:1025D000203344205072696E7465720052657065D4
:1025E0007469657220302E39322E39004D6F646562
:1025F0006C3A503830324E410046575665723A5662
:10260000342E3600467265652052414D3A008200F4
:10261000000C0043244E65656473206C616E677521
:102620006167652073656C656374696F6E007374B0
:10263000617274000400501D7C00D009A4001009D0
:10264000CC008008F40010081C01B807440168079A
:102650006C0128079401E806BC01B806E40188066D
:102660000C026006340238065C0218068402F0058B
:10267000AC02D805D402B805FC02980524038005F5
:1026800074035005C4032805140400056404D80429
:10269000B404B0042C058004A40558041C062804C6
:1026A000940600040C07D803AC07A8034C08780371
:1026B000EC0848038C092003A40AD0021C0BA802D2
:1026C000AC0C2802FC0C0802C40DB801140E9801D1
:1026D000B40E38012C0FE000540FB8007C0F8800B6
:1026E000A40F4800F40F28FFFC0FC0F90000000001
:1026F0008C030800AE035000D603A000F703F000DF
:1027000018044001380490015904E0017A043002B1
:102710009A048002BB04D002FC0470032605C003A7
:10272000860630079709A00F750D201C520E401F1A
:102730001F0F6022FF0F803E0400081D9000580903
:102740001C01B007A801C80634023006C002C0054B
:102750004C036805D80318056404D004F0049804F9
:102760007C05600408063004940600042007D003AA
:10277000AC07A80338088003C40858035009300385
:10278000DC090803680AD802F40AB002800B880248
:102790000C0C6002980C3002240DF801B00DC00141
:1027A0003C0E8001C80E3001540FB800B40F280051
:1027B000E00F00000400401D900060091C01B007FC
:1027C000A801D00634023806C002C8054C036805CB
:1027D000D80318056404D804F00498047C05600448
:1027E00008063004940600042007D003AC07A803B1
:1027F00038088003C408580350093003DC09080373
:10280000680AE002F40AB802800B88020C0C60022D
:10281000980C3002240DF801B00DC0013C0E80016F
:10282000C80E3001540FB800B40F2800E00F0000AC
:1028300004000016D800C006AC0178058002C00470
:10284000540348042804E803FC049803D00550030B
:10285000A40618037807D8024C08A80220097002C1
:10286000F4093802C80A08029C0BD001700C9001D0
:10287000440D5001180EF800EC0E8800C00F000047
:102880000400681D4C00500B94005809DC005008EF
:102890002401A8076C012807B401C006FC017006DA
:1028A000440228068C02F005D402B8051C038805F2
:1028B00064035805AC033005F40310053C04E80438
:1028C0008404C804CC04A804140590045C057004B6
:1028D000A4055804EC053804340620047C060804DA
:1028E000C406F0030C07D8035407C8039C07B003C1
:1028F000E40798032C08800374087003BC0858038D
:10290000040948034C09300394091803DC0908033F
:10291000240AF0026C0AE002B40AC802FC0AB002FF
:10292000440BA0028C0B8802D40B70021C0C5802C2
:10293000640C4002AC0C2802F40C10023C0DF001B7
:10294000840DD801CC0DB801140E98015C0E7001F5
:10295000A40E4801EC0E1801340FD8007C0F88003B
:10296000C40F0800FC0F0000000000000000000081
:102970000000000000000000000000000000000057
:102980000000000000000000000000000000401FE8
:10299000450060094F0010095C00C0086B0070081A
:1029A0007D0020089200D007AC008007CC003007E3
:1029B000DE00E006230190065E014006A601F00558
:1029C000FF01A0056D025005F30200059603B00457
:1029D0005A046004400510044806C0036E077003E3
:1029E000A8082003EB09D002230B8002410C30021F
:1029F000390DE001040E9001A20E4001170FF00006
:102A0000690FA000A20F5000C60F0000DD0FB0FF3D
:102A1000EB0F60FF38006009BB00D0076702F005CC
:102A2000B202C805EE02A0053E03780598035005E2
:102A3000F20328055E040005BF04D80432058804AB
:102A4000B40560043A063804D80610046C07E8039D
:102A5000F807C003980898032E097003D4094803A7
:102A60006F0A10030F0BE0029F0BA8022B0C6002F1
:102A7000B30C4002980DF001FC0DA0014C0E70014A
:102A80009C0E40011D0FF000480FC8006C0FA00005
:102A9000ED0F60FFFE0F48FE380060093B0038096B
:102AA000400010094600E8084C00C0085200980891
:102AB00059007008620048086C0020087600F8078A
:102AC0008000D0079100A8079C008007A800580745
:102AD000BB003007D0000807E300E006F800B806A6
:102AE000100190062D01680650014006720118067B
:102AF0009001F005C201C805EC01A0052802780587
:102B000067025005B2022805EE0200053E03D80414
:102B10009803B004F20388045E046004BF04380420
:102B200032051004B405E8033A06C003D80698033A
:102B30006C077003F8074803980820032E09F80271
:102B4000D409D0026F0AA8020F0B80029F0B580213
:102B50002B0C3002B30C08022F0DE001980DB801C8
:102B6000FC0D90014C0E68019C0E40011D0FF00001
:102B7000480FC8006C0FA000ED0F60FFFE0F48FE6D
:102B80000400700DD8004804AC0158038002D8023C
:102B90005403800228043802FC040002D005C80156
:102BA000A4069801780770014C0848012009180113
:102BB000F409F000C80AC8009C0BA000700C70005B
:102BC000440D3800180E0000EC0EA8FFC00FE8FE00
:102BD0000400001B54006009640010097400C00860
:102BE000840070089C002008B800D007D800800737
:102BF000000130072C01E00668019006AC01400698
:102C00000002F0056802A005E0025005740300050B
:102C10002404B004F0046004DC051004E406C003DE
:102C20000408700330092003780B8002600DE00176
:102C3000A80E4001680FA000C00F0000E80F60FF61
:102C40000400801AD8009808AC01200780025006C2
:102C50005403C80528045805FC040005D005B00439
:102C6000A4066804780728044C08E8032009B00388
:102C7000F4097003C80A38039C0BF802700CB00208
:102C8000440D6802180E0802EC0E8801C00F88007F
:102C9000F00F00000000A00F5C006009690010093F
:102CA0007900C0088C007008A2002008BD00D00781
:102CB000DE008007050130073401E0066D01900653
:102CC000B20140060702F0056D02A005E8025005BA
:102CD0007B0300052B04B004F8046004EB06C0037A
:102CE000350920037F0B8002650DE001B00E400125
:102CF0001D0FF000480FC8006C0FA000ED0F60FF23
:102D0000FE0F48FE5461726765744265643A009430
:102D10002C402CD02B802B982A142A00008C298040
:102D2000283028B4273827EC2634261C151C143AE2
:102D300021002243141F1F132E5072696E74657296
:102D40002073657420696E746F20647279207275C7
:102D50006E206D6F646520756E74696C207265738A
:102D6000746172742100206D61726B65642064650A
:102D7000636F75706C656400206D61726B656420B3
:102D8000646566656374003A20776F726B696E677D
:102D9000003A2074656D702073656E736F722064E5
:102DA0006566656374004F746865723A00686561B2
:102DB00074656420626564000000420FA107160577
:102DC000D0030D038B022E02E801B20186016301DC
:102DD00045012C0117010401F4000000000000006F
:102DE0000000000000000000000024F403D950C3DC
:102DF0008EB1C2A23D96828B3582127AE372816CCB
:102E0000CB66A861015DC758EB546151204E1E4B43
:102E10005648C14559431A41013F093D2F3B71397D
:102E2000CD374036C93465331432D430A32F802EC9
:102E30006B2D632C672B752A8E29B028DC27102771
:102E40004B268F25D9242B248223E0224322AC2138
:102E50001A218D200420801F001F841E0C1E971D28
:102E6000261DB81C4E1CE61B821B201BC11A641AAF
:102E70000A1AB2195D190A19B9186A181C18D1175B
:102E800088174017FA16B51673163116F115B315D3
:102E900076153A150015C7148F1458142214EE1322
:102EA000BA13881356132513F612C71299126C120F
:102EB00040121512EB11C111981170114811211116
:102EC000FB10D610B1108D1069104610241002109E
:102ED000E10FC00FA00F800F610F420F230F060FED
:102EE000E80ECB0EAF0E930E770E5C0E410E270E42
:102EF0000D0EF30DDA0DC10DA80D900D780D600DBE
:102F0000490D320D1B0D050DEF0CD90CC30CAE0C89
:102F1000990C850C700C5C0C480C350C210C0E0CBB
:102F2000FB0BE80BD60BC40BB20BA00B8E0B7D0B6F
:102F30006B0B5A0B4A0B390B290B180B080BF80AB1
:102F4000E90AD90ACA0ABB0AAC0A9D0A8E0A800A93
:102F5000710A630A550A470A390A2C0A1E0A110A1D
:102F6000040AF709EA09DD09D009C409B709AB0960
:102F70009F09920987097B096F09630958094C0960
:102F8000410936092B09200915090A090009F50824
:102F9000EB08E008D608CC08C208B808AE08A408B8
:102FA0009A08900887087D0874086B08610858081B
:102FB0004F0846083D0834082C0823081A08120850
:102FC00009080108F807F007E807E007D807D00765
:102FD000C807C007B807B007A807A107000000008E
:102FE000000000F10000000000000000C40000002C
:102FF0000000000000F00000000000000000C3001E
:1030000000000000000000F30000000000000000CD
:10301000F40000000000000000AF0000000000000D
:103020000000AC0000000000000000F30000000001
:10303000000000005F00000000000000005B0000D6
:10304000000000000000570000000000000000F336
:103050000000000000000000EE0000000000000082
:1030600000ED0000000000000000EB00F72FEE2F45
:10307000E52FDC2F1B301230093000303F30363066
:103080002D30243063305A30513048300000000475
:10309000006C300000000400743000000004007C6C
:1030A0003000000004008430534420696E697420AD
:1030B0006661696C0046696C652073656C65637454
:1030C0006564002053697A653A0046696C65206F33
:1030D00070656E65643A0066696C652E6F70656E2A
:1030E000206661696C656400A1309A3093308C3041
:1030F0005344206361726420696E73657274656401
:1031000000534420636172642072656D6F7665645C
:1031100000686F6D654178697320007C3C3E5E2BD2
:103120003D3F2F5B5D3B2C2A225C007A2D70726F35
:10313000626520646964206E6F7420756E747269B4
:103140006767657220616674657220676F696E6774
:10315000206261636B20746F2073746172742070DD
:103160006F736974696F6E2E0020593A0020583AC7
:10317000005A2D70726F62653A005A2D70726F623C
:1031800065206661696C6564007A2D70726F626596
:1031900020747269676765726564206265666F7224
:1031A00065207374617274696E672070726F6269F2
:1031B0006E672E0055495F414354494F4E5F484F5B
:1031C0004D45414C4C200080250000403800000057
:1031D0004B00008070000000960000C0DA00000084
:1031E000E10000002C010008B2010000C201000053
:1031F000F401000084030090D0030000E803000005
:1032000008070020A1070000100E0040420F0060D8
:10321000E316000000000055495F414354494F4EFA
:103220005F45504F534954494F4E200055495F4127
:103230004354494F4E5F5A504F534954494F4E5F84
:1032400046415354200055495F414354494F4E5F16
:1032500059504F534954494F4E5F464153542000F3
:1032600055495F414354494F4E5F58504F5349545D
:10327000494F4E5F46415354200055495F414354E6
:10328000494F4E5F5A504F534954494F4E200055B5
:10329000495F414354494F4E5F59504F5349544938
:1032A0004F4E200055495F414354494F4E5F58509F
:1032B0004F534954494F4E200050726F746F636FE3
:1032C0006C2076657273696F6E206368616E6765E6
:1032D000642C20757067726164696E670054726156
:1032E0006E73666F726D6174696F6E206D6174725A
:1032F00069783A00457874722E004550523A33206E
:10330000004550523A3220004550523A3120004593
:1033100050523A3020004D61726B656420616C6CD4
:103320002065787472756465727320617320756EA0
:103330006A616D6D65642E0053656C6563744578D4
:103340007472756465723A003A005461726765740C
:1033500045787472000000206A616D200020646569
:103360006320002064656620000400030020002F15
:10337000006572726F722077726974696E6720746B
:103380006F2066696C6500504944204175746F7404
:10339000756E652066696E697368656420212050CA
:1033A0006C61636520746865204B702C204B69202C
:1033B000616E64204B6420636F6E7374616E74730E
:1033C00020696E2074686520436F6E666967757248
:1033D0006174696F6E2E68206F7220454550524FA0
:1033E0004D00446F6E6520736176696E6720666973
:1033F0006C652E00436F6E6669673A0057726F6E98
:103400006720636865636B73756D005A2D70726F0A
:1034100062652073746174653A007A5F6D696E3A13
:10342000004C2000482000795F6D696E3A00785F9B
:103430006D696E3A00656E6473746F7073206869AD
:10344000743A200044656275674C6576656C3A0095
:103450005072696E7465724D6F64653A434E4300F5
:103460005072696E7465724D6F64653A4C61736534
:1034700072005072696E7465724D6F64653A4646AB
:1034800046000000003FCDCC4C3D0AD7A33B6F1255
:10349000033A00002110422063308440A550C660EA
:1034A000E770088129914AA16BB18CC1ADD1CEE101
:1034B000EFF13112100273325222B5529442F77278
:1034C000D662399318837BB35AA3BDD39CC3FFF351
:1034D000DEE36224433420040114E664C774A44488
:1034E00085546AA54BB528850995EEE5CFF5ACC5A1
:1034F0008DD55336722611163006D776F666955658
:10350000B4465BB77AA719973887DFF7FEE79DD7F0
:10351000BCC7C448E5588668A778400861180228E7
:103520002338CCC9EDD98EE9AFF9488969990AA940
:103530002BB9F55AD44AB77A966A711A500A333AB7
:10354000122AFDDBDCCBBFFB9EEB799B588B3BBB90
:103550001AABA66C877CE44CC55C222C033C600C47
:10356000411CAEED8FFDECCDCDDD2AAD0BBD688DE0
:10357000499D977EB66ED55EF44E133E322E511E97
:10358000700E9FFFBEEFDDDFFCCF1BBF3AAF599F30
:10359000788F8891A981CAB1EBA10CD12DC14EF1D0
:1035A0006FE18010A100C230E32004502540467036
:1035B0006760B9839893FBA3DAB33DC31CD37FE361
:1035C0005EF3B1029012F322D23235421452776286
:1035D0005672EAB5CBA5A89589856EF54FE52CD531
:1035E0000DC5E234C324A0148104667447642454D6
:1035F0000544DBA7FAB79987B8975FE77EF71DC741
:103600003CD7D326F2369106B01657667676154625
:1036100034564CD96DC90EF92FE9C899E9898AB990
:10362000ABA94458654806782768C018E108823875
:10363000A3287DCB5CDB3FEB1EFBF98BD89BBBABA0
:103640009ABB754A545A376A167AF10AD01AB32AC5
:10365000923A2EFD0FED6CDD4DCDAABD8BADE89DF0
:10366000C98D267C076C645C454CA23C832CE01C15
:10367000C10C1FEF3EFF5DCF7CDF9BAFBABFD98F80
:10368000F89F176E367E554E745E932EB23ED10E65
:10369000F01E00401454456E6453746F7020203A3D
:1036A000256470004173657461205A20706F696BE6
:1036B0006B65616D613A2554326D6D0041736574BF
:1036C00061205920706F696B6B65616D613A25549B
:1036D000316D6D004173657461205820706F696BA6
:1036E0006B65616D613A2554306D6D004173657491
:1036F000612074756C6F7374696D656E20706F698D
:103700006B6B65616D6174005A2D616E74757269C1
:103710006E206B6F726B6575733A257A680025446D
:10372000332033206B6F70696F7461002544322041
:1037300032206B6F70696F74610025443120312035
:103740006B6F70696F00254430204569206B6F7086
:10375000696F7461002558352056616C6974736512
:1037600020707572732E2036002558342056616CF7
:103770006974736520707572732E20350025583377
:103780002056616C6974736520707572732E2034D5
:1037900000507572736F74696E2036206569005031
:1037A0007572736F74696E2035206569005075728B
:1037B000736F74696E2034206569004CE16D70EFA1
:1037C0002036203A2565352F2545350243004CE14A
:1037D0006D70EF2035203A2565342F25453402439E
:1037E000004CE16D70EF2034203A2565332F2545DC
:1037F00033024300202542436D6D000525656302B9
:1038000000052565632F254563020000256F7300C1
:10381000255566206D2054756C6F737465747475CE
:1038200000255566206D0025557400583A257830DE
:1038300020593A257831004D756C3A20256F6D205E
:103840002020466C6F773A20256F66005A3A25781B
:10385000322020427566203A20256F4200072565F8
:10386000422F2545620200052565632F2545630229
:10387000072565422F2545620200256F73004275BA
:10388000663A20256F42004D756C3A20256F6D25F4
:10389000252520FD202020453A202578346D00562E
:1038A0006972746175733AFD20256F6625252520A0
:1038B00020205A3A257832000E202565622F2545B2
:1038C00062B020593A257831000A202565302F252D
:1038D0004530B020583A257830004B69656C690056
:1038E0004D756B617574657474753A2542436D6DE1
:1038F000004D756B61757465747475004C69696D04
:10390000617075696B6B6F005669687265C3A4203E
:10391000504554207465697070690053696E696E12
:10392000656E207061706572692074656970706978
:10393000004B6170746F6E004275696C6454616B0A
:103940000045692070696E6E6F7465747461000063
:10395000416C757374616E2070696E74612076615C
:103960006C6974747500416C757374616E20706954
:103970006E6E6F74650056616C6D69696E610050A2
:103980007572736F7474696D656E2074756B6F7387
:10399000006CE16D70EF74696C61742E2E2E004F17
:1039A000646F74746161207461766F697465747496
:1039B0006100707572736F7474696D6574004B6C1F
:1039C000696B2075757369206B75756D656E6E75A5
:1039D00073004F68697461204D3130362025466987
:1039E00000536572766F207061696B6B613A2025B8
:1039F0006F53004175746F6D2E7461736F3A20259B
:103A00006C6C00507265737320456E74657220771C
:103A100068656E20646F6E650054756C2E6C616E07
:103A20006B6120796CEF732F616C6173005072656C
:103A3000737320552F44204B657920746F206D6F70
:103A40007665005661696864612074756C6F737483
:103A500075736C616E6B6100566169686461207496
:103A6000756C6F737475736C616E6B61005A206D49
:103A7000696B726F61736B656C6C75733A256F5906
:103A80006D6D004C6F706574612074756C6F73742C
:103A9000757300536C6F7742616E67004A6F75747F
:103AA0006F61696B61004154582076697274616C72
:103AB0002E206F6E2F65690054756C6F737465747A
:103AC0007475004C616E6B612074756C6F737465F6
:103AD0007474750054756C6F7374757361696B6180
:103AE00000003A002070E16976E1E1200054756C35
:103AF0006F7374696E2076616C6D69732E00534428
:103B0000206B6F72747469206F6E005344206B6F6A
:103B10007274746920706F6973004F646F7474619C
:103B20006120796B732E3A255855206D6D004F64D6
:103B30006F74746161206CE16D6D2E202558540204
:103B400043005461736F2064656C7461004C617351
:103B50006B65207461736F740041736574612050EC
:103B600033004173657461205032004173657461A4
:103B7000205031005A206B616C6962726F696E74FB
:103B800069004173657461205A3D3000506F69735C
:103B90007461206D697461742E004EE17974E120C6
:103BA0006D6974617400507568616C6C75736B65D8
:103BB00072726F696E3A256F66252525004E6F700B
:103BC0006575736B6572726F696E3A256F6D252529
:103BD0002500072565622F2545620243207E256F5B
:103BE000620045333A2565322F25453202437E2552
:103BF0006F320045323A2565312F25453102437E2B
:103C0000256F310045313A2565302F254530024377
:103C10007E256F3000052565632F2545630243200F
:103C20007E256F43005075736B7572693A256F423C
:103C3000004C6164617461616E2E2E2E004C6164D3
:103C40006174747520454550524F4D004B6F6B6F3A
:103C50006F6E70616E6F0054616C6C656E6E657432
:103C6000747520454550524F4D004B6F6B6F6F6E12
:103C700070616E6F004D6F6F74746F726920706F3A
:103C80006973206BE179742E00506F6973746574E9
:103C90007475004B75756D656E74616120416C754E
:103CA00073746161004B75756D656E746161205050
:103CB0007572736F742E00546F696D696E74613A1A
:103CC000256C61005049440042616E6742616E6735
:103CD00000592D7461736F697475733A25587900B2
:103CE000582D7461736F697475733A255878005054
:103CF0004944204D61783A25584400416A6F204D6F
:103D000061783A25584D00416A6F204D696E3A2519
:103D1000586D0050494420443A25586400504944A5
:103D200020493A2558690056616C766F6E7461209F
:103D300050574D3A25584D004B756F6C6C7574207B
:103D400061696B613A2558700050494420503A250A
:103D500058700048616C6C696E74613A255868004F
:103D60004574656E656D696E656E20717561643A46
:103D7000255861004574656E656D696E656E206CD1
:103D8000696E3A25586C00537461622E41696B610B
:103D90003A255877004B69696864797479733A25D4
:103DA0005841004D616B732E2046523A255846000B
:103DB0004BE1796E6E697374E146523A255866009C
:103DC00041736B656C74612F4D4D3A2553650053FB
:103DD000696972746F6E6F706575733A256F6300F1
:103DE000596C6569736574005B6D696E5D20303D6B
:103DF00073616D6D75746100546F696D65746F6E7C
:103E0000206AE16C6B65656E3A20256970004D6132
:103E10006B732E20746F696D65746F6E005B6D69D6
:103E20006E5D20303D73616D6D75746100546F6916
:103E30006D65746F6E206AE16C6B65656E3A202566
:103E40006973004D6F6F74746F726920746F696D60
:103E500065746F6E004173657461206E6F702E2003
:103E60006D616B732E004173657461206E6F702EEF
:103E7000203735252525004173657461206E6F70EC
:103E80002E203530252525004173657461206E6F25
:103E9000702E2032352525250053616D6D757461B6
:103EA000207475756C6574696E005475756C6574F5
:103EB000696E206E6F706575733A254673252525EA
:103EC000005475756C657474696D656E206E6F70E5
:103ED000657573004D696E3A25737A204D61783AA5
:103EE00025735A005A3A257832206D6D004D696E5F
:103EF0003A257379204D61783A25735900593A254E
:103F00007831206D6D004D696E3A257378204D61D2
:103F1000783A25735800583A257830206D6D004D59
:103F2000696E3A25737A204D61783A25735A005AA2
:103F30003A257832206D6D004D696E3A25737920EF
:103F40004D61783A25735900593A257831206D6DC5
:103F5000004D696E3A257378204D61783A25735883
:103F600000583A257830206D6D0031206B6C696BFC
:103F70006B617573203D2031206D6D00453A2578C9
:103F800033206D6D00004D616B732072616A6F6943
:103F90007474696D657374613A25735A004D696E66
:103FA0002E2072616A6F697474696D657374613A09
:103FB00025737A005A3A257832206D6D00004D61E4
:103FC0006B732072616A6F697474696D6573746173
:103FD0003A257359004D696E2E2072616A6F6974BB
:103FE00074696D657374613A25737900593A25785F
:103FF00031206D6D00004D616B732072616A6F69D5
:104000007474696D657374613A257358004D696EF7
:104010002E2072616A6F697474696D657374613A98
:1040200025737800583A257830206D6D00004D6179
:104030006B732072616A6F697474696D6573746102
:104040003A25735A004D696E2E2072616A6F697449
:1040500074696D657374613A25737A005A3A2578EC
:1040600032206D6D2025647A25645A00004D616B05
:10407000732072616A6F697474696D657374613AF3
:10408000257359004D696E2E2072616A6F697474D0
:10409000696D657374613A25737900593A257831F1
:1040A000206D6D2025647925645900004D616B7386
:1040B0002072616A6F697474696D657374613A2501
:1040C0007358004D696E2E2072616A6F697474694D
:1040D0006D657374613A25737800583A25783020FD
:1040E0006D6D20256478256458004B6F74693A25FE
:1040F000665A004B6F7469205A3A25665A004B6F16
:10410000746920593A256659004B6F746920583AF2
:10411000256658004D616B732E3A25667A004D6115
:104120006B732E205A3A25667A004D616B732E20F0
:10413000593A256679004D616B732E20583A2566F1
:1041400078005379EF7474EF6E6F7065757300507B
:104150006F6973746120746965646F73746F004B69
:104160006F72747469206173657465747475004B43
:104170006F7274746920706F6973746574747500FC
:104180004A61746B612074756C6F737475737461BC
:104190000054756C6F737475737461756B6F005434
:1041A000756C6F73746120546965646F73746F000C
:1041B00056756F646F6E20706F6973746F0053690A
:1041C000697272E16AE16C6B65656E3A254F610058
:1041D0004D696E2E6469737420203A254F64004245
:1041E00061636B736C2E2020203A254F620050656E
:1041F00072757574612020203A254F7200254F3268
:10420000204F5053206E6F70656100254F31204F55
:104210005053206E6F726D61616C6900254F3020C4
:104220004F5053206569004B756976612D616A6F47
:104230003A256464005669726865657420203A25E1
:10424000646500546965646F742020203A256469B0
:1042500000546F697374612020203A25646F004C0C
:104260006174616120202020454550524F4D00541B
:10427000616C6C656E6E6120454550524F4D004B30
:10428000696968747976797973005A2D41736B6521
:104290006C203A25614A0041736B656C2020203AFE
:1042A00025616A005369697272E13A25615A0053C7
:1042B00069697272E15A203A25615A00536969723C
:1042C00072E159203A256159005369697272E158C7
:1042D000203A2561580054756C6F7374613A2561FA
:1042E0007A0054756C6F737461205A3A25617A00B4
:1042F00054756C6F73746120593A25617900547557
:104300006C6F73746120583A25617800417365744D
:1043100061206CE16874EF70697374650025583230
:104320002056616C6974736520707572732E33004A
:104330002558312056616C697473652070757273ED
:104340002E32002558302056616C697473652070D8
:104350007572732E3100507572736F74696E2033ED
:1043600020456900507572736F74696E2032204564
:104370006900507572736F74696E20312045690051
:10438000507572736F2033203A2565322F254532E0
:10439000024300507572736F2032203A2565312F29
:1043A000254531024300507572736F2031203A2544
:1043B00065302F254530024300416C757374616E82
:1043C000203A2565622F25456202430050757273BD
:1043D0006F742E207061696B6B61005A20506169A7
:1043E0006B6B61206E6F706561005A205061696B64
:1043F0006B610059205061696B6B61206E6F706555
:10440000610059205061696B6B61005820506169EF
:104410006B6B61206E6F7065610058205061696B35
:104420006B610053616D6D757461206D6F6F747495
:104430006F7269004173657461206CE16874EF709C
:1044400069737465004AE1E16864797479730056B0
:10445000616C6F743A256C6F004573696CC3A46D11
:104460006D6974797320414253004573696CC3A42C
:104470006D6D6974797320504C41004B6F746920E5
:104480005A004B6F74692059004B6F7469205800B3
:104490004B6F7469206B61696B6B69004B6F74695A
:1044A0002064656C7461005669726865656E657438
:1044B00073696E74E1005344206B6F727474690009
:1044C000507572736F74696E005061696B6B610037
:1044D0004B6F6B6F6F6E70616E6F00256F65005074
:1044E000696B612D61736574756B736574005461DC
:1044F0006B616973696E01002A2A2A2A2056495283
:104500004845202A2A2A2A004569205344206B6FF7
:1045100072747469610056616C6D69730054756CD6
:104520006F7374610054756C6F737461612E2E2EFD
:10453000004569004B796C6CE1004E2F41005361DE
:104540006D6D7574610050E1E16C6C6500456E64E1
:1045500053746F70203A25647000536574205A209C
:104560006F66667365743A2554326D6D00536574D9
:104570002059206F66667365743A2554316D6D005D
:104580005365742058206F66667365743A255430FD
:104590006D6D00536574207072696E74206F66666D
:1045A00073657473005A2D70726F622079756B7326
:1045B000656B6C6967693A257A6800254433203356
:1045C000206B6F707961002544322032206B6F7050
:1045D0007961002544312031206B6F7079610025AD
:1045E0004430204B6F7079616C616D6100255835E6
:1045F000204578742E2036E28099796920736563AE
:104600002000255834204578742E2035E2809969A1
:10461000207365632000255833204578742E20349C
:10462000E2809975207365632000204578742E2000
:1046300036E280997969206B6170617420002045B1
:1046400078742E2035E2809969206B617061742046
:10465000004578742E2034E2809975206B6170617A
:1046600074005369632E2036203A202545350243D5
:10467000005369632E2035203A202545340243003B
:104680005369632E2034203A20254533024300200D
:10469000256F436D6D000525656302000525656383
:1046A0002F254563020000256F7300255566206D98
:1046B0002079617A696C646900255566206D002552
:1046C000557400583A25783020593A257831004DF4
:1046D000756C3A20256F6D202020466C6F773A204C
:1046E000256F66005A3A2578322020427566203AB6
:1046F00020256F4200072565422F254562020005EF
:104700002565632F25456302072565422F254562F0
:104710000200256F73004275663A20256F42004DF6
:10472000756C3A20256F6D25252520FD202020451C
:104730003A202578346D0050727A65703AFD202554
:104740006F6625252520205A3A257832000E20252F
:1047500065622F254562B020593A257831000A203C
:104760002565302F254530B020583A257830004453
:10477000696C004469676572203A20256F436D6D4E
:104780000044696765720059617069736B616E00FE
:10479000596573696C205045542054617065004D13
:1047A00061766920426F7961204B616769646900B5
:1047B0004B6170746F6E004275696C6454616B007C
:1047C0004B61706C616D6120596F6B00004B6170C3
:1047D0006C616D61204B616C696E6C696769005436
:1047E00061626C612075737475206B61706C616DB2
:1047F000610042656B6C656D65204D6F64750045A9
:10480000787472756465722074616B696C64690098
:104810006963696E2062656B6C6579696E004973C6
:10482000746E696C656E20736963616B6C696B6C27
:10483000617200697369746D616B206963696E20D0
:1048400074696B6C6179696E004578747275646522
:10485000726C6172692074656B726172004D3130E7
:104860003659692061746C61202546690053657270
:10487000766F20706F732E3A20256F53004F746F40
:10488000207365766979653A20256C6C00507265F5
:10489000737320456E746572207768656E20646F4F
:1048A0006E6500616C6D616B206963696E20636584
:1048B000766972696E00507265737320552F4420BB
:1048C0004B657920746F206D6F76650046696C6169
:1048D0006D656E74206465676973746972004669FA
:1048E0006C616D656E7420646567697374697200CC
:1048F0005A2042616279737465702E3A256F596D42
:104900006D0059617A6469726D61796920647572AC
:1049100064757200536C6F7742616E6700426F730B
:104920007461205A616D616E00415458206775634F
:1049300075206F6E2F6F66660079617A696C6469A5
:104940000046696C616D656E742068617263616EAA
:1049500064690059617A6469726D61205A616D61A0
:104960006E6900003A002067756E200059617A690F
:1049700063692048617A697200534420436172641C
:104980002054616B696C6469005344204361726414
:104990002043696B6172696C64690042656B6C6588
:1049A0003A20255855206D6D0042656B6C6520538B
:1049B00069632E2025585402430044656C74617964
:1049C00069207365766979656C65005365766965FC
:1049D00079692048657361706C610053657420507B
:1049E00033005365742050320053657420503100F9
:1049F0005A204B616C69622E005A3D30276120615C
:104A00007961726C61004F6C63756D7520536966D6
:104A100069726C61004F6C63756D7520476F7374BC
:104A2000657200416B697320436172702E203A25D4
:104A30006F662525250048697A20436172702E3AF9
:104A4000256F6D25252500072565622F2545620206
:104A500043207E256F620045333A2565322F254578
:104A60003202437E256F320045323A2565312F25CB
:104A7000453102437E256F310045313A2565302F9F
:104A800025453002437E256F3000052565632F25BF
:104A900045630243207E256F43004F6E62656C6C58
:104AA000656B3A256F420059756B6C75796F722E84
:104AB0002E2E00454550524F4D2764616E20636194
:104AC0006772696C6469004B6F6E666967757261C5
:104AD00073796F6E00454550524F4D2761206B61D1
:104AE00079646564696C6469004B6F6E66696775AB
:104AF000726173796F6E004D6F746F726C617220AA
:104B00004B6170616C6900445552445500426564C4
:104B1000204973696E69796F7200457874727564A3
:104B20006572204973696E69796F720045796C65A9
:104B30006D3A256C61005049440042616E674261E4
:104B40006E6700592D4F667365743A255879005881
:104B50002D4F667365743A25587800504944204DAE
:104B600061783A25584400537572756375204D611C
:104B7000783A25584D00537572756375204D696EEE
:104B80003A25586D0050494420443A255864005055
:104B9000494420493A255869004B6F6E74726F6C16
:104BA0002050574D3A25584D00426F73205A616D81
:104BB0006E3A2558700050494420503A25587000EC
:104BC0004B6F6E74726F6C3A2558680047656C695C
:104BD000736D697320717561643A2558610047658A
:104BE0006C69736D6973206C696E3A25586C00535B
:104BF0007461622E54696D653A2558770049766D67
:104C0000653A255841004D61782046523A2558466C
:104C1000004261736C616E6769632046523A2558A1
:104C200066004164696D2F4D4D3A25536500426120
:104C30007564726174653A256F630047656E656CD3
:104C4000005B6D696E5D20303D4B6170616C690089
:104C50004B6170616D61207375722E3A2025697009
:104C6000004D61782E20426F737461005B6D696E38
:104C70005D20303D4F6666004D6F746F72204B6152
:104C800070613A20256973004D6F746F726C6172A8
:104C900020426F7374610046616E2054616D204143
:104CA00063696B0046616E276920417961726C61AE
:104CB0002037352525250046616E27692041796119
:104CC000726C612035302525250046616E276920EC
:104CD000417961726C612032352525250046616E6F
:104CE0002769204B617061740046616E2048697AC3
:104CF000693A2546732525250046616E2048697A64
:104D000069004D696E3A25737A204D61783A2573B2
:104D10005A005A3A257832206D6D004D696E3A2559
:104D20007379204D61783A25735900593A257831C5
:104D3000206D6D004D696E3A257378204D61783A8B
:104D400025735800583A257830206D6D004D696EF6
:104D50003A25737A204D61783A25735A005A3A25DC
:104D60007832206D6D004D696E3A257379204D6162
:104D7000783A25735900593A257831206D6D004DE8
:104D8000696E3A257378204D61783A25735800583A
:104D90003A257830206D6D00312074696B203D20FC
:104DA00031206D6D00453A257833206D6D00004D42
:104DB000617820656E6473746F703A25735A004D84
:104DC000696E20656E6473746F703A25737A005A49
:104DD0003A257832206D6D00004D617820656E6453
:104DE00073746F703A257359004D696E20656E6457
:104DF00073746F703A25737900593A257831206DB4
:104E00006D00004D617820656E6473746F703A2593
:104E10007358004D696E20656E6473746F703A2527
:104E2000737800583A257830206D6D00004D617818
:104E300020656E6473746F703A25735A004D696E05
:104E400020656E6473746F703A25737A005A3A2540
:104E50007832206D6D2025647A25645A00004D61FA
:104E60007820656E6473746F703A257359004D69CC
:104E70006E20656E6473746F703A25737900593AC9
:104E8000257831206D6D2025647925645900004D09
:104E9000617820656E6473746F703A257358004DA5
:104EA000696E20656E6473746F703A25737800586C
:104EB0003A257830206D6D202564782564580044AB
:104EC000656C7461205369662E476F6E2E48697A4F
:104ED0003A25665A005A2769205369662E476F6E35
:104EE0002E48697A3A25665A00592779692053690C
:104EF000662E476F6E2E48697A2E3A2566590058FD
:104F00002769205369662E476F6E2E48697A2E3ABC
:104F1000256658004D61783A25667A004D61782003
:104F20005A3A25667A004D617820593A256679000B
:104F30004D617820583A25667800496C65726C6539
:104F40006D6500446F73796179692053696C004B1A
:104F500061727469204261676C61004B61727469AF
:104F60002043696B6172004261736B69796120440F
:104F70006576616D004261736B6979692044757271
:104F8000616B6C617400446F7379612059617A645C
:104F9000697200416E7469204F6F7A65004D6F76BB
:104FA000652061667465723A254F61004D696E2E09
:104FB000204D65736166653A254F6400456B7365E6
:104FC0006E20426F736C2E3A254F620047657269FE
:104FD0002043656B6C2E3A254F7200254F32204FCF
:104FE00050532048697A6C6900254F31204F505347
:104FF000204B6C6173696B00254F30204F5053205C
:105000004B6170616C6900426F7374612043616C25
:1050100069733A25646400486174616C6172203A76
:105020002564650042696C67692020203A2564691F
:10503000004563686F202020203A25646F004545B5
:1050400050524F4D2764616E20636167697200455D
:105050004550524F4D2761206B617964657400495A
:10506000766D65005A2D4A65726B203A25614A00BB
:10507000582D59204A65726B203A25616A004861B3
:1050800072656B6574203A25615A00486172656BE0
:105090006574205A203A25615A00486172656B6533
:1050A000742059203A25615900486172656B657416
:1050B0002058203A2561580059617A6D6120482EA8
:1050C0003A25617A0059617A6D6120482E205A3A5A
:1050D00025617A0059617A6D6120482E20593A2560
:1050E00061790059617A6D6120482E20583A256116
:1050F00078004F726967696E206920417961726C2E
:10510000610025583220457874722E20332775208F
:105110005365630025583120457874722E2032275C
:105120007969205365630025583020457874722EC4
:10513000203127692053656300457874722E20332F
:105140002769204B61706100457874722E203227E8
:1051500069204B61706100457874722E2031276997
:10516000204B617061005369632E2033203A202563
:1051700045320243005369632E2032203A202545F0
:10518000310243005369632E2031203A20254530F7
:105190000243005461626C61205369633A202545E3
:1051A00062024300486172656B657469005A204869
:1051B000697A6C6920486172656B657469005A2070
:1051C000486172656B65746900592048697A6C6939
:1051D00020486172656B6574690059204861726589
:1051E0006B65746900582048697A6C69204861725F
:1051F000656B657469005820486172656B657469F8
:10520000004D6F746F7275204B61706174004F7246
:10521000696A696E6520617961726C6100536F67BC
:10522000756D61004973696B6C6172203A256C6F12
:1052300000414253204F6E20497369746D610050E4
:105240004C41204F6E20497369746D61005A2053A0
:105250002E476F6E646572005920532E476F6E643F
:105260006572005820532E476F6E64657200486562
:105270007073696E6920532E476F6E6465720044C7
:10528000656C7461796920536966722E20476F6E70
:10529000642E00446562756767696E670053442039
:1052A0004B617274004578747275646572004B6F5F
:1052B0006E756D2D486172656B657400596170691A
:1052C0006C616E6469726D6100256F650048697A72
:1052D0006C69204179617200476572692001002A7A
:1052E0002A2A2A2048415441202A2A2A2A005344A3
:1052F000204B61727420596F6B00426F73746100B0
:1053000059617A69796F720059617A69796F722E81
:105310002E2E0048617969720045766574004E2F23
:1053200041004B6170616C69004163696B00456EBF
:105330006453746F7020202020203A202564700070
:1053400050727A6573756E2077205A203A25543250
:105350006D6D0050727A6573756E20772059203A12
:10536000202554316D6D0050727A6573756E20770B
:105370002058203A202554306D6D00506F6C6F7AA4
:10538000656E69652077796472756B7500577973FE
:105390002E20536F6E6479205A3A257A680025448E
:1053A000332033204B6F7069650025443220322052
:1053B0004B6F706965002544312031204B6F706957
:1053C0006100254430204E6965206B6F7069756AF5
:1053D00000255835205779626965727A20457874BE
:1053E000722E203600255834205779626965727A0A
:1053F00020457874722E2035002558332057796265
:105400006965727A20457874722E20340057796C61
:105410002E20457874727564657220360057796C59
:105420002E20457874727564657220350057796C4A
:105430002E20457874727564657220340054656D51
:10544000702E4578363A2565352F254535024300BF
:1054500054656D702E4578353A2565342F254534D1
:1054600002430054656D702E4578343A2565332F1C
:10547000254533024300202542436D6D0005256517
:10548000630200052565632F254563020000256F33
:105490007300255566206D206472756B6F77616EA1
:1054A0006500255566206D0025557400583A25780D
:1054B0003020593A257831004D756C3A20256F6DB2
:1054C000202020466C6F773A20256F66005A3A25D7
:1054D00078322020427566203A20256F4200072549
:1054E00065422F2545620200052565632F2545632A
:1054F00002072565422F2545620200256F73004291
:1055000075663A20256F42004D756C3A20256F6D07
:1055100025252520FD202020453A202578346D00C2
:1055200050727A65703AFD20256F6625252520206A
:105530005A3A257832000E202565622F254562B043
:1055400020593A257831000A202565302F2545302D
:10555000B020583A257830004A657A796B00496E58
:105560006E6120677275626F73633A2542436D6D99
:1055700000496E6E61004B6C656A207720737A7407
:105580007966636965005A69656C6F6E6120746144
:10559000736D6120504554004E6965622E20746120
:1055A000736D61206D61736B2E004B6170746F6E53
:1055B000004275696C6454616B00437A7973747945
:1055C0002073746F6C0073746F6C753A0057796256
:1055D0006965727A206D6174657269616C00506FE3
:1055E0006B72796369652073746F6C7500537461B5
:1055F0006E64627900456B73747275646572207AAB
:1056000061626C6F6B6F77616E790074656D706548
:10561000726174757279202E2E2E00506F637A6538
:105620006B616A206E61207A6164616E6500726FE1
:105630007A67727A616320656B73747275646572E0
:1056400079004B6C696B6E696A20616279207A6EB1
:10565000C3B3770049676E6F72756A206B6F6D2EEA
:10566000204D3130362025466900506F7A79636AC3
:10567000612053657277613A20256F53004175743C
:105680006F706F7A696F6D6F772E3A20256C6C00A2
:10569000507265737320456E746572207768656E0D
:1056A00020646F6E650066696C616D656E7420774D
:1056B00020676F72652F646F6C0050726573732082
:1056C000552F44204B657920746F206D6F766500EF
:1056D0005A6D69656E2066696C616D656E74005AFD
:1056E0006D69616E612066696C616D656E747500CF
:1056F000446F726567756C756A205A3A256F596DEB
:105700006D0050727A657277696A20777964727574
:105710006B00536C6F7742616E6700446561642073
:1057200054696D6500576C2F57796C207A617369E5
:105730006C616E6965006472756B6F77616E650090
:105740005A757A79746F2066696C616D656E7475CF
:1057500000437A61732070726163790020682E00C3
:105760003A0020646E692C20004472756B61726B84
:105770006120676F746F7761004B617274612053B1
:105780004420776C6F7A6F6E61004B617274612098
:1057900053442077796A657461005779737577206F
:1057A000726F7A67727A65773A2558556D6D004D3C
:1057B000696E54656D70207779737577753A2558E1
:1057C00054024300506F7A696F6D2064656C747980
:1057D000004F626C69637A20706F7A696F6D6F77C2
:1057E000616E6961005573746177205033005573A1
:1057F0007461772050320055737461772050310006
:105800005A206B616C69622E005573746177205A5F
:105810003D30005A6572756A20706F6D6961720063
:10582000506F6B617A20706F6D6961720050727A8F
:1058300065706C79772066696C616D2E3A256F66AC
:1058400025252500537A79626B6F73632064727526
:105850006B75203A256F6D25252500072565622F7C
:105860002545620243207E256F620045333A256557
:10587000322F25453202437E256F320045323A25CC
:1058800065312F25453102437E256F310045313A80
:105890002565302F25453002437E256F30000525D4
:1058A00065632F2545630243207E256F43004275C3
:1058B000666F723A256F42004C61646F77616E6962
:1058C000652E2E2E006F64637A7974616E61207A82
:1058D00020454550524F4D004B6F6E66696775729B
:1058E00061636A61007A61706973616E6120646FDF
:1058F00020454550524F4D004B6F6E66696775727B
:1059000061636A610053696C6E696B692077796CB9
:1059100061637A6F6E65005A6174727A796D616E37
:10592000790047727A616E69652073746F6C7500D7
:1059300047727A616E696520676C6F776963790079
:10594000416B636A613A256C6100504944004477B9
:10595000757374616E6F7779004F66736574205943
:1059600020203A255879004F66736574205820200E
:105970003A255878004D617820737465722E3A206C
:10598000255844004D61782049207761723A2025DE
:10599000584D004D696E2049207761723A20255894
:1059A0006D005049442044202020203A25586400AE
:1059B0005049442049202020203A255869004D6153
:1059C000782E2050574D203A255844004465616494
:1059D00074696D65203A2558700050494420502064
:1059E0002020203A25587000526567756C61746FED
:1059F000723A25586800416476616E63652071755E
:105A00006164203A25586100416476616E636520C7
:105A10006C696E20203A25586C00437A61732073BC
:105A2000746162696C2E203A255877730050727A3F
:105A30007973706965737A2E20203A255841004D9C
:105A4000617820537A79626B6F7363203A255846E8
:105A500000506F637A61746B6F776120535A3A25F7
:105A60005866004B726F6B692F6D6D203A2025537D
:105A70006500537A79626B6F7363205553423A2500
:105A80006F6300557374617769656E696120676C37
:105A90006F776E6500303D4E69652077796C616384
:105AA0007A616A0057796C61637A20706F3A2025B9
:105AB0006970206D696E2E0057796C61637A207A67
:105AC0006173696C2E20706F00303D4E69652077E0
:105AD000796C61637A616A0057796C61637A2070CE
