:100000000C94FB7B0C942C7C0C942C7C0C942C7C02
:100010000C942C7C0C942C7C0C942C7C0C942C7CC0
:100020000C942C7C0C942C7C0C942C7C0C942C7CB0
:100030000C942C7C0C944CCB0C942C7C0C942C7C31
:100040000C942C7C0C9484CC0C942C7C0C942C7CE8
:100050000C942C7C0C942C7C0D946C330D94463AAF
:100060000C942C7C0D9442330D9412330C942C7C04
:100070000C942C7C0C942C7C0C942C7C0C942C7C60
:100080000C942C7C0C942C7C0C942C7C0C942C7C50
:100090000C942C7C0C942C7C0C942C7C0C942C7C40
:1000A0000C942C7C0C942C7C0C942C7C0C942C7C30
:1000B0000C942C7C0C942C7C0C942C7C0C942C7C20
:1000C0000C942C7C0C942C7C0C942C7C0C942C7C10
:1000D0000C942C7C0C942C7C0C942C7C0C942C7C00
:1000E0000C942C7C6B827082758281828D821A8343
:1000F0009982A182A982B582C182CD82DE82EA8202
:100100001A83F68202830E836FC287C287C287C2B8
:1001100087C287C287C287C287C287C287C287C297
:1001200087C287C287C287C287C287C287C287C287
:1001300087C287C287C236C240C222C218C2CAC1A1
:10014000D4C147C12CC2FAC104C24AC254C257C169
:1001500035C15EC2F0C187C20EC2E6C1DEC187C230
:1001600087C287C2ACC1B6C1C0C187C287C287C2BD
:1001700087C287C287C236C240C222C218C2CAC161
:10018000D4C147C12CC2FAC104C24AC254C257C129
:1001900035C15EC2F0C187C20EC2E6C1DEC187C2F0
:1001A00087C287C2ACC1B6C1C0C1170119013501F0
:1001B00031012101270113012F01370133011B01F7
:1001C0000F010D0111012701390115012301084A11
:1001D000D73B3BCE016E84BCBFFDC12F3D6C74315B
:1001E0009ABD56833DDA3D00C77F11BED9E4BB4CB2
:1001F0003E916BAAAABE000000803F05A84CCDB27C
:10020000D44EB93836A9020C50B9918688083CA65C
:10021000AAAA2ABE000000803F000D947F390D94E9
:100220007B390D9483390D9463390D948D390D9478
:100230005C390D945F390D9475390D948A2E0D94A7
:10024000712E0D9458390D9491390D94352E0D94CD
:1002500096390D949F2E0D94632E0D94A4470D9402
:1002600067390D9452390D9471390D944E390D94AE
:100270006D390D948939456E642066696C65206C12
:1002800069737400426567696E2066696C65206CED
:10029000697374005344207072696E74696E6720CC
:1002A0006279746520004E6F742053442070726927
:1002B0006E74696E670057726974696E6720746F37
:1002C0002066696C653A20006F70656E2066616912
:1002D0006C65642C2046696C653A20004372656148
:1002E00074696F6E206661696C656400446972654B
:1002F00063746F72792063726561746564006578F8
:1003000074727564657220636F6F6C6572207370B0
:10031000656564205B302D3235355D00646973742A
:10032000616E636520746F207265747261637420FE
:100330007768656E2068656174696E67205B6D6DB6
:100340005D0074656D702E20666F72207265747228
:10035000616374696F6E207768656E20686561748B
:10036000696E67205B435D0074656D702E20737449
:100370006162696C697A652074696D65205B735D83
:10038000005A2D6F6666736574205B7374657073B5
:100390005D00592D6F6666736574205B73746570BC
:1003A000735D00582D6F6666736574205B737465AA
:1003B00070735D00504944206D61782076616C75E2
:1003C00065205B302D3235355D0050494420442D89
:1003D0006761696E0050494420492D6761696E006C
:1003E00050494420502D6761696E2F646561642D0A
:1003F00074696D6500504944206472697665206DAA
:10040000696E00504944206472697665206D617898
:100410000068656174206D616E61676572205B3094
:100420002D335D00616363656C65726174696F6E25
:10043000205B6D6D2F735E325D007374617274208A
:100440006665656472617465205B6D6D2F735D0018
:100450006D61782E206665656472617465205B6DE0
:100460006D2F735D00737465707320706572206DFD
:100470006D0052657472616374696F6E20756E648D
:100480006F207370656564004578747261206578CB
:1004900074727573696F6E206F6E20756E646F2055
:1004A00072657472616374205B6D6D5D005265747A
:1004B00072616374696F6E207A2D6C696674205B5B
:1004C0006D6D5D0052657472616374696F6E207347
:1004D00070656564205B6D6D2F735D00526574728D
:1004E000616374696F6E206C656E677468205B6D04
:1004F0006D5D00456E61626C65207265747261634A
:1005000074696F6E20636F6E76657273696F6E20AB
:100510005B302F315D0042656420504944206D619D
:10052000782076616C7565205B302D3235355D0045
:100530004265642050494420442D6761696E004241
:1005400065642050494420492D6761696E00426509
:10055000642050494420502D6761696E00426564F3
:1005600020504944206472697665206D696E0042AE
:10057000656420504944206472697665206D617815
:10058000004265642048656174204D616E61676555
:1005900072205B302D335D004175746F6C6576653C
:1005A0006C206163746976652028312F3029005AE8
:1005B0002D70726F62652062656E64696E6720637C
:1005C0006F7272656374696F6E2043205B6D6D5D41
:1005D000005A2D70726F62652062656E64696E6785
:1005E00020636F7272656374696F6E2042205B6D69
:1005F0006D5D005A2D70726F62652062656E646970
:100600006E6720636F7272656374696F6E2041203C
:100610005B6D6D5D005A2D70726F626520593320DD
:100620005B6D6D5D005A2D70726F626520583320CE
:100630005B6D6D5D005A2D70726F626520593220BE
:100640005B6D6D5D005A2D70726F626520583220AF
:100650005B6D6D5D005A2D70726F6265205931209F
:100660005B6D6D5D005A2D70726F62652058312090
:100670005B6D6D5D005A2D70726F6265206F6666EE
:100680007365742079205B6D6D5D005A2D70726FFB
:100690006265206F66667365742078205B6D6D5DA2
:1006A000005A2D70726F626520782D792D737065F8
:1006B0006564205B6D6D2F735D005A2D70726F62E3
:1006C00065207370656564205B6D6D2F735D004DF3
:1006D00061782E207A2D70726F6265202D20626500
:1006E0006420646973742E205B6D6D5D005A2D70FB
:1006F000726F626520686569676874205B6D6D5D07
:1007000000436F6174696E6720746869636B6E651E
:100710007373205B6D6D5D005A2D61786973207471
:10072000726176656C20616363656C657261746982
:100730006F6E205B6D6D2F735E325D00592D617899
:1007400069732074726176656C20616363656C65A2
:10075000726174696F6E205B6D6D2F735E325D0028
:10076000582D617869732074726176656C206163BD
:1007700063656C65726174696F6E205B6D6D2F735C
:100780005E325D005A2D6178697320616363656C28
:1007900065726174696F6E205B6D6D2F735E325D83
:1007A00000592D6178697320616363656C657261BE
:1007B00074696F6E205B6D6D2F735E325D00582D16
:1007C0006178697320616363656C65726174696FD8
:1007D0006E205B6D6D2F735E325D005A206D617807
:1007E000206C656E677468205B6D6D5D0059206DCF
:1007F0006178206C656E677468205B6D6D5D005874
:10080000206D6178206C656E677468205B6D6D5D2E
:10081000005A206D696E20706F73205B6D6D5D00F6
:1008200059206D696E20706F73205B6D6D5D00588F
:10083000206D696E20706F73205B6D6D5D004D6182
:10084000782E205A2D6A65726B205B6D6D2F735D5B
:10085000004D61782E206A65726B205B6D6D2F7381
:100860005D005A2D6178697320686F6D696E67202D
:100870006665656472617465205B6D6D2F735D00E4
:10088000592D6178697320686F6D696E67206665A0
:10089000656472617465205B6D6D2F735D00582D0A
:1008A0006178697320686F6D696E6720666565643D
:1008B00072617465205B6D6D2F735D005A2D6178D8
:1008C0006973206D61782E20666565647261746558
:1008D000205B6D6D2F735D00592D61786973206DFC
:1008E00061782E206665656472617465205B6D6D4C
:1008F0002F735D00582D61786973206D61782E200B
:100900006665656472617465205B6D6D2F735D0053
:100910005A2D6178697320737465707320706572E5
:10092000206D6D00592D6178697320737465707343
:1009300020706572206D6D00582D61786973207389
:100940007465707320706572206D6D0053746F70E4
:1009500020737465707065722061667465722069B9
:100960006E6163746976697479205B6D732C303DB8
:100970006F66665D004D61782E20696E61637469F3
:1009800076652074696D65205B6D732C303D6F66F4
:10099000665D005072696E74657220616374697679
:1009A00065205B735D0046696C616D656E742070D7
:1009B00072696E746564205B6D5D0042617564727E
:1009C000617465004C616E677561676500504944EC
:1009D000204175746F74756E65206661696C65641D
:1009E000212074696D656F7574005049442041750C
:1009F000746F74756E65206661696C65642120543E
:100A0000656D706572617475726520746F6F2068B2
:100A100069676800204B643A2000204B693A200047
:100A2000204B703A200020436C617373696320503F
:100A30004944002054753A2000204B753A2000208C
:100A40006D61783A2000206D696E3A200020643A8A
:100A5000200020626961733A2000504944204175AA
:100A6000746F74756E65207374617274004E6F20BC
:100A700063617365206C6967687473004D617854B5
:100A8000656D703A004469616D657465723A004144
:100A90006363656C65726174696F6E3A004D61786D
:100AA00053706565643A004A65726B3A004D61782F
:100AB00042656454656D703A005072696E74657277
:100AC000547970653A43617274657369616E005A56
:100AD00054726176656C416363656C3A0059547277
:100AE0006176656C416363656C3A00585472617657
:100AF000656C416363656C3A005A5072696E74416B
:100B00006363656C3A00595072696E744163636542
:100B10006C3A00585072696E74416363656C3A00B8
:100B20005A53697A653A005953697A653A005853BD
:100B3000697A653A005A4D61783A00594D61783AC0
:100B400000584D61783A005A4D696E3A00594D6926
:100B50006E3A00584D696E3A005265747261637462
:100B6000696F6E556E646F53706565643A005265C7
:100B70007472616374696F6E556E646F45787472D8
:100B8000614C6F6E674C656E6774683A00526574AD
:100B900072616374696F6E556E646F4578747261CB
:100BA0004C656E6774683A0052657472616374696B
:100BB0006F6E5A4C6966743A005265747261637460
:100BC000696F6E53706565643A0052657472616353
:100BD00074696F6E4C6F6E674C656E6774683A002F
:100BE00052657472616374696F6E4C656E67746888
:100BF0003A004A65726B5A3A004A65726B58593A24
:100C0000005072696E746C696E6543616368653A21
:100C100000454550524F4D3A004175746F6C6576F2
:100C2000656C3A005A50726F62653A0043617365B1
:100C30004C69676874733A00537570706F72744CC6
:100C40006F63616C46696C616D656E746368616E3B
:100C500067653A00537570706F7274473130473171
:100C6000313A005A486F6D654469723A0059486FCD
:100C70006D654469723A0058486F6D654469723A0F
:100C800000536F667477617265506F776572537742
:100C9000697463683A004C43443A0046616E323AE4
:100CA000300046616E3A005344436172643A004832
:100CB00065617465644265643A004D6978696E6780
:100CC00045787472756465723A004E756D45787436
:100CD00072756465723A00496E7075744275666625
:100CE00065723A0042617564726174653A00436FDF
:100CF0006E66696775726174696F6E20726573657F
:100D00007420746F2064656661756C74732E00695D
:100D10006E666F3A436F6E74696E75652066726FAA
:100D20006D20666174616C20737461746500005499
:100D3000657374696E6720666174616C2065727298
:100D40006F720029203D20002C0042656E64696EA0
:100D5000672061742028004A616D206465627567B0
:100D600067696E673A00436F6E6669677572617492
:100D7000696F6E206C6F616465642066726F6D20B0
:100D8000454550524F4D2E00436F6E666967757230
:100D90006174696F6E2073746F72656420746F2064
:100DA000454550524F4D2E00536574204D69637276
:100DB0006F7374657070696E6700436F6C64206553
:100DC0007874727573696F6E20646973616C6C6F8F
:100DD00077656400436F6C6420657874727573691D
:100DE0006F6E20616C6C6F77656400576174636827
:100DF000646F672066656174757265207761732022
:100E00006E6F7420636F6D70696C656420696E74B9
:100E10006F20746869732076657273696F6E210044
:100E20004175746F726574726163743A00205A4A36
:100E300065726B3A004A65726B3A0020746F20004D
:100E400053657420766F6C756D6574726963206587
:100E50007874727573696F6E20666F72206578742E
:100E60007275646572200044697361626C65642008
:100E7000766F6C756D6574726963206578747275D0
:100E800073696F6E20666F72206578747275646521
:100E90007220004D31313420004649524D574152A5
:100EA000455F4E414D453A52657065746965725FA4
:100EB000302E39322E39204649524D574152455F26
:100EC00055524C3A68747470733A2F2F676974687E
:100ED00075622E636F6D2F72657065746965722F10
:100EE00052657065746965722D4669726D776172BD
:100EF000652F2050524F544F434F4C5F564552532D
:100F0000494F4E3A312E30204D414348494E455FBE
:100F1000545950453A4D656E64656C20455854529D
:100F2000554445525F434F554E543A312052455037
:100F300045544945525F50524F544F434F4C3A33FA
:100F40000050696E2063616E206E6F7420626520B0
:100F5000736574206279204D34322C2069732069C6
:100F60006E2073656E7369746976652070696E733F
:100F70002120002069732000496C6C6567616C203A
:100F8000532076616C756520666F72204D34320097
:100F900020746F2000536574206F75747075743AF7
:100FA0002000000136372603023C3D380E0F2E305C
:100FB0003E12130DFF0A081A1C180D0E3500000012
:100FC0000000000089000000000000000088000010
:100FD0000000000000008600000000000000008506
:100FE00000C60FBD0FD80FCF0F54F5726B00506FB6
:100FF0006C736B690043657374696E610053766549
:101000006E736B610053756F6D69004974616C6933
:10101000616E6F004E656465726C616E647365002D
:101020004672616E6361697300506F7274756775A3
:10103000657300457370616E6F6C00446575747301
:10104000636800456E676C697368004175746F6C06
:1010500065766C65204D6561737572650003580493
:101060000200E10F0320040200E50F000004260443
:101070004000960000000422044000950000000497
:101080004C040000BB000000044D040000BC000044
:1010900000042E04000090000000042A0400008FC9
:1010A000000000042B0400008E000000042C04004B
:1010B000008D00000004290400008C0000000413CF
:1010C0000400005500000004120400005400000059
:1010D0000411040000530000000416040000510035
:1010E0000000041504000050000000041404000077
:1010F0004F000000040F04000038000000040E043C
:10110000000037000000040D04000035000000045A
:101110000C04000034000000040B04000033000045
:1011200000040A040000310000000409040000303B
:1011300000000004080400002F00E90F03AE2600A1
:10114000000000EE0F03AD2600000000F50F03AC19
:101150002600000000FD0F03AA2600000000051075
:1011600003AF26000000000B1003A82600000000BB
:10117000141003A62600000000201003AB26000078
:101180000000291003A72600000000331003A92641
:10119000000000003B1003A52600000000431003E0
:1011A000A426000000004B1003BF04000000000054
:1011B0000003B2040000D0000000025D10000087B0
:1011C000000000026410000084000000041004000D
:1011D000008B00B310AA10A11098108F1086107DFC
:1011E000103914301427141E1415140C1474106BB9
:1011F000100314E910E010D710CE10C510BC103148
:101200001128111F1116110D110411FB10F2109D60
:101210001194118B1182117911701167115E1155A2
:10122000114C1143113A11CA11C111B811AF11A6D5
:10123000110200001000D3110200000600F3110299
:1012400000000800FF110200000C000F1202000055
:1012500005002712417373656D626C6520636865D4
:10126000636B2077697A61726400000003070400F1
:10127000003B00000003060400003A0000000231B9
:101280001200000F00000002381200004E000000A3
:10129000023F120000390000000246120000E40084
:1012A0000000024D1200008A0000000382040000CA
:1012B0000A01000003810400003F000000038004D5
:1012C00000003E000000037F0400003D000000031A
:1012D0007E0400003C00541203C80F000000000010
:1012E0000004BD040010E300000003B9040010E195
:1012F00000000003B8040010E000000003B6040082
:1013000010DF00000003B5040010DE00000003BE83
:10131000040010DD00000003B7040010DC00000032
:1013200003B4040000D2000000031E040000830088
:101330000000031D04000082000000031C040000E4
:1013400081000000031B04000080000000031A0459
:1013500008007F00000004520400007E000000042A
:10136000B60F00000901000004B50F0000080100DD
:101370000004B40F0000070100000000000000F2AC
:101380000000000000000000AB00000000000000B2
:10139000007000000000000000006F000000035417
:1013A0002402000300000003E80300000400000022
:1013B0000100000000C900A01297128E1285127C55
:1013C000128A1873126A12D612CD12C412BB12B24C
:1013D00012A91215130C130313FA12F112E812DFFB
:1013E0001254134B1342133913301327131E136F68
:1013F0001366135D1393138A1381137813AE13A529
:10140000139C130000042F0400009B00000004261E
:101410000420009A00000004250420009900000028
:1014200004240420009800000004230420009700F6
:101430000000042204200094000000042D04000099
:1014400093000200000800B7130200000600C71353
:101450000200000700D3130200000700E11302009E
:10146000000300EF1303F0030400F5130200000370
:1014700000FD1300000000000000F7000000000065
:10148000000000DA003914301427141E1415140C4F
:1014900014031400000000000000F500000000002C
:1014A000000000F40000000000000000D600000072
:1014B0000000000000D500000002421400000D00F2
:1014C0000000024914000011000000026A1A000026
:1014D000100000000250140010D900000002571440
:1014E00000007D00000002321A00000F0000000220
:1014F0002B1A00000E00000002391A00000B000039
:10150000000000000000E00000000000000000DA21
:101510000000000000000000DF00000000000000EC
:1015200000DA0000000000000000E1000000000000
:10153000000000DA0000000000000000DE000000F3
:101540000000000000DA0000000000000000DD00E4
:1015500000000000000000DA0000000000000000B1
:10156000DC0000000000000000DA000000000000C5
:101570000000F60000000000000000F40000000081
:1015800000000000D40000000000000000D30000B4
:10159000000000000000CF0000000000000000CEAE
:1015A0000000000000000000CD000000000000006E
:1015B00000CC000000025E1400000601000002558D
:1015C0001A00002100000002401A00002200000062
:1015D000025C1A00001F00000002471A00002000F1
:1015E000000002631A00001D000000024E1A0000F5
:1015F0001E00000003000400801600000003FF032B
:1016000000801500000003FE0300801400000003AA
:10161000440400002E0000000265140000230000B6
:1016200000033A04000028000000046204000025C2
:1016300000000004610400002400000003430400D3
:10164000801C00000003310400101B000000033860
:101650000400001A00000003470400001800000006
:101660000337040000170000000388130000CB00BC
:1016700000000448040000B1000000041F04000042
:10168000B000000003FD0300801300000000000014
:1016900000006E00000000000000006D000000006F
:1016A000000000006C00000000000000006B000063
:1016B0000000000000006A00000000000000006957
:1016C00000000000000000006800000000000000B2
:1016D000006700000000000000006600000000003D
:1016E0000000006500000000000000006400000031
:1016F0000000000000630000000000000000620025
:101700000000000000000061000000000000000078
:101710006000000000000000005F0000000000000A
:1017200000005E00000000000000005D00000000FE
:10173000000000005C00000000000000005B0000F2
:101740000000000000005A000000000000000059E6
:101750000000000000000000580000000000000031
:10176000005700000003F40301024D000000026C6A
:10177000140200C900000003F70304004A0000003F
:1017800003F60302044900000003F50301024800C8
:10179000000003E80300000A000000000000000051
:1017A000A80000000000000000A7000000000000EA
:1017B0000000A60000000000000000A5007C1473DB
:1017C0001402000008008514AE14A5149C14931490
:1017D000F6148717ED14E414DB14D214C914C014E2
:1017E000B7140815FF141A1511152C1523153E15DD
:1017F0003515501547156215591586157D15741543
:101800006B15AA15A11598158F1582160416FB15D0
:10181000F215E915E015D715CE15C515BC15161628
:10182000B315311628161F1616160D1682167916C0
:10183000701667165E1655164C1643163A16A616FF
:101840009D1694168B16CA16C116B816AF16EE164C
:10185000E516DC16D316121709170017F7163617F8
:101860002D1724171B175A17511748173F1787179B
:101870007E1775176C1763179017A2179917B4176F
:10188000AB17000310270200BD17000002C11700AC
:1018900000A200058A130400C8172F2F206163746B
:1018A000696F6E3A726573756D650044656C657439
:1018B000696F6E206661696C65640046696C6520BD
:1018C00064656C65746564000200000900D0174708
:1018D00032380D204733322053320D0055495F41D5
:1018E0004354494F4E5F484F4D45414C4C200003F7
:1018F00010270200E2170310270200E61703102743
:101900000200EA170310270200EE17031027020057
:10191000F2170310270200F617526571756573748C
:1019200050617573653A00473120452D33204632AA
:1019300030300A00473120453820463230300A0026
:101940004D31303920533230300A004D313930209A
:101950005334300A004D3130370A004734205333B6
:101960000A004D31303620533130300A00473120E3
:101970005A2D3520463230300A004731205A352062
:10198000463230300A004731205935302046323057
:1019900030300A00473120592D3530204632303062
:1019A000300A004731205835302046323030300A76
:1019B00000473120582D35302046323030300A0073
:1019C0004D3434340A0047342053310A004739314A
:1019D0000A000589130400FA170588130400021889
:1019E0002F2F20616374696F6E3A706175736500A3
:1019F000696D706F7274616E743A2046696C616DC6
:101A0000656E74206368616E6765207265717569C3
:101A100072656421004A616D20636F6E74726F6C31
:101A20002064697361626C65643A000200000C0016
:101A30000A180200000500221802000009002C18F4
:101A400003FC0304003E1803FB030400461803FADA
:101A50000304004E1803EF030400561803EE0304BA
:101A6000005E1803ED030400661802000005006E16
:101A7000180100000100781803102702007A1803EB
:101A8000102702007E1855495F414354494F4E5F6D
:101A9000484F4D455F5A200055495F414354494FD7
:101AA0004E5F484F4D455F59200055495F414354B3
:101AB000494F4E5F484F4D455F58200055495F41A3
:101AC0004354494F4E5F484F4D45414C4C200020F8
:101AD00063203D20002062203D2000706C616E6517
:101AE0003A2061203D20004175746F6C6576656C0D
:101AF000696E672064697361626C65640041757426
:101B00006F6C6576656C696E6720656E61626C6589
:101B100064004731205A350D0066696E697368505C
:101B2000726F62696E6728293A20746F5A3A0066AC
:101B3000696E69736850726F62696E6728293A200E
:101B4000746F593A0066696E69736850726F6269A2
:101B50006E6728293A20746F583A0066696E697377
:101B60006850726F62696E6728293A205072696EF8
:101B70007465723A3A61786973537465707350652D
:101B8000724D4D5B5A5F415849535D3A0066696E2C
:101B900069736850726F62696E6728293A205072C3
:101BA000696E7465723A3A617869735374657073DB
:101BB0005065724D4D5B595F415849535D3A00661F
:101BC000696E69736850726F62696E6728293A207E
:101BD0005072696E7465723A3A61786973537465CC
:101BE00070735065724D4D5B585F415849535D3A73
:101BF0000066696E69736850726F62696E67282942
:101C00003A205072696E7465723A3A6F666673650F
:101C1000745A3A0066696E69736850726F62696ED1
:101C20006728293A205072696E7465723A3A6F6675
:101C300066736574593A0066696E69736850726FAD
:101C400062696E6728293A205072696E7465723A2B
:101C50003A6F6666736574583A0066696E697368B0
:101C600050726F62696E6728293A206F6C644F6604
:101C7000665A3A0066696E69736850726F62696E7F
:101C80006728293A206F6C644F6666593A00666986
:101C90006E69736850726F62696E6728293A206FA7
:101CA0006C644F6666583A00004175746F6C6576D7
:101CB000656C206D6174726978207265736574005B
:101CC00025206F6E2000202F20004A616D2073694F
:101CD000676E616C2073746570733A0046696C615D
:101CE0006D656E7420736C697070696E6700696DE4
:101CF000706F7274616E743A45787472756465724F
:101D0000206A616D2064657465637465640044696C
:101D10007361626C696E6720616C6C2068656174C8
:101D20006572732064756520746F206465746563E3
:101D30007465642073656E736F7220646566656395
:101D4000742E00206465672E204300206D6561734A
:101D50007572656420004572726F723A436F756CDC
:101D600064206E6F7420686F6C642074656D70659C
:101D70007261747572652000206D73002061667455
:101D8000657220004572726F723A54656D702E2034
:101D900072616973656420746F20736C6F772E2095
:101DA00052697365203D20004F6E6520686561743F
:101DB0006572207365656D73206465636F75706C03
:101DC00065642066726F6D20746865726D697374E6
:101DD0006F72202D2064697361626C696E67206187
:101DE0006C6C20666F72207361666574792100489F
:101DF0006561746572206465636F75706C656400FD
:101E00004865617465642062656420657863656512
:101E1000646564206D61782074656D7065726174AD
:101E2000757265210020453A00205A3A00583A0060
:101E300020403A002042403A0020524157002042C0
:101E40003A00202F00543A0053706565644D756C5C
:101E50007469706C793A00466C6F774D756C746973
:101E6000706C793A0046616E73706565643A002063
:101E70006D696E0020686F7572732000206461794F
:101E80007320005072696E74696E672074696D65A5
:101E90003A006D20005072696E7465642066696C4A
:101EA000616D656E743A00496E76616C696420619B
:101EB0007263006D6561737572654175746F6C65F1
:101EC00076656C506C616E6528293A20683A006D21
:101ED0006561737572654175746F6C6576656C507C
:101EE0006C616E6528293A2070793A006D656173DE
:101EF0007572654175746F6C6576656C506C616E5A
:101F00006528293A2070783A002D2D2D2D2D2D2D64
:101F10002D2D2D2D2D2D2D2D2D2D2D2D2D2D2D2DF1
:101F20002D2D2D2D2D2D006D6561737572654175FB
:101F3000746F6C6576656C506C616E6528293A200B
:101F400062793A006D6561737572654175746F6C85
:101F50006576656C506C616E6528293A2062783A26
:101F6000006D6561737572654175746F6C6576653A
:101F70006C506C616E6528293A2061793A006D6574
:101F800061737572654175746F6C6576656C506CC4
:101F9000616E6528293A2061783A006D6561737534
:101FA00072654175746F6C6576656C506C616E65B9
:101FB00028293A206F793A006D6561737572654121
:101FC00075746F6C6576656C506C616E6528293A26
:101FD000206F783A006D6561737572654175746F35
:101FE0006C6576656C506C616E6528293A207A5074
:101FF000726F6265593328293A006D656173757295
:10200000654175746F6C6576656C506C616E6528A2
:10201000293A207A50726F6265583328293A006D48
:102020006561737572654175746F6C6576656C502A
:102030006C616E6528293A207A50726F6265593258
:1020400028293A006D6561737572654175746F6C0E
:102050006576656C506C616E6528293A207A5072FD
:102060006F6265583228293A006D65617375726533
:102070004175746F6C6576656C506C616E6528296E
:102080003A207A50726F6265593128293A006D659D
:1020900061737572654175746F6C6576656C506CB3
:1020A000616E6528293A207A50726F62655831282E
:1020B000293A006D6561737572654175746F6C6561
:1020C00076656C506C616E6528293A204245445F04
:1020D0004C4556454C494E475F524550455449542E
:1020E000494F4E533A006D65617375726541757461
:1020F0006F6C6576656C506C616E6528293A20427C
:1021000045445F4C4556454C494E475F475249440C
:102110005F53495A453A006D656173757265417543
:10212000746F6C6576656C506C616E6528293A2019
:102130004245445F434F5252454354494F4E5F4DD1
:102140004554484F443A006D656173757265417539
:10215000746F6C6576656C506C616E6528293A20E9
:102160004245445F4C4556454C494E475F4D4554AA
:10217000484F443A00636F72726563744175746FBF
:102180006C6576656C28293A204E554D5F4D4F544D
:102190004F525F445249564552533A00636F727230
:1021A0006563744175746F6C6576656C28293A2097
:1021B0004245445F434F5252454354494F4E5F4D51
:1021C0004554484F443A00473332200066696E69EF
:1021D000736850726F62696E6728293A205072697D
:1021E0006E7465723A3A6F6666736574582D323A4A
:1021F0000066696E69736850726F62696E6728293C
:102200003A205072696E7465723A3A6F6666736509
:1022100074582D313A002061745A3A004375727235
:10222000656E745A3A0072756E4265644C657665E7
:102230006C696E6728293A20636F72726563744116
:1022400075746F6C6576656C28292066696E697394
:102250006865640072756E4265644C6576656C698C
:102260006E6728293A206D656173757265417574D2
:102270006F6C6576656C506C616E652829206669A7
:102280006E69736865640050726F62696E6720687A
:1022900061642072657475726E6564206572726F18
:1022A0007273202D206175746F6C6576656C696E34
:1022B000672063616E63656C65642E0072756E42A3
:1022C00065644C6576656C696E6728293A20636F92
:1022D0006D2D3E6861735328293A0072756E426510
:1022E000644C6576656C696E6728293A20444953C9
:1022F000544F5254494F4E5F434F525245435449F5
:102300004F4E3A0072756E4265644C6576656C6935
:102310006E6728293A204D41585F48415244574141
:1023200052455F454E4453544F505F5A3A007275C0
:102330006E4265644C6576656C696E6728293A2043
:1023400044454C54413A0072756E4265644C657662
:10235000656C696E6728293A2044524956455F5397
:10236000595354454D3A0052656C61746976652045
:10237000706F736974696F6E696E67004162736F25
:102380006C75746520706F736974696F6E696E67C0
:1023900000473332206C6576656C696E6720666134
:1023A000696C65642100473239206C6576656C691B
:1023B0006E67206661696C65642100473239206C64
:1023C0006576656C696E67206661696C656421007D
:1023D000473239200041646A7573746564207A203D
:1023E0006F726967696E005A2D70726F6265206145
:1023F000766572616765206865696768743A00553B
:102400006E6B6E6F776E20636F6D6D616E643A00F8
:10241000526573656E643A006F6B20004D6973738B
:10242000696E67206C696E656E756D6265720020FD
:10243000676F7420004572726F723A6578706563D9
:10244000746564206C696E652000736B6970200090
:102450006F6B004563686F3A00446F6E6520707261
:10246000696E74696E672066696C65005344206507
:1024700072726F72206669786564005344206572D9
:10248000726F7220646964206E6F74207265636F6E
:102490007665722100534420526561642045727252
:1024A0006F720053442072656164206572726F72AE
:1024B000007761697400466F726D61742065727295
:1024C0006F7200205200204A002049002050002056
:1024D0005300204600204500205A00205900205873
:1024E00000205072696E7465722073746F7070652D
:1024F0006420616E6420686561746572732064692C
:102500007361626C65642064756520746F20746803
:102510006973206572726F722E2046697820657229
:10252000726F7220616E64207265737461727420C0
:1025300077697468204D3939392E00666174616C91
:102540003A009D1194118B1182117911701167114C
:102550005E1155114C1143113A1100002000230067
:10256000260029002C002F0032000001000003018A
:102570000601090105050505070508080808020206
:1025800002020A0A0808040404040101010101010D
:1025900001010303030303030303040707070C0CF0
:1025A0000C0C0C0C0C0C02020202060606060606B7
:1025B00006060B0B0B0B0B0B0B0B0102102020085C
:1025C000081020401020408002010201080402018E
:1025D00001020408102040808040201008040201FD
:1025E0008004020180402010080402010804020156
:1025F00001020408102040800102040810204080DD
:1026000000000A0B02090C0D0E080703040100006C
:1026100000000000000000000000000000000000BA
:102620000000000000000000000000001211100077
:10263000000000000000000000000000000000009A
:1026400000000000000002536F667477617265201D
:102650005265736574005761746368646F672052D4
:10266000657365740042726F776E206F75742052C7
:10267000657365740045787465726E616C2052658F
:1026800073657400506F7765725570000D0E0A0007
:102690001F1511151F1F00001C1F11111F00000422
:1026A0000A0A0A0E1F1F0E001F1111111F00000041
:1026B0001F1F1F1F1F0000040A0400000000000469
:1026C0000E150404041C005A6F6E65737461722049
:1026D0003344205072696E7465720052657065747F
:1026E00069657220302E39322E39004D6F64656C69
:1026F0003A503830324E410046575665723A563499
:102700002E3600467265652052414D3A0082000027
:102710000C0042254E65656473206C616E677561BF
:1027200067652073656C656374696F6E00737461AF
:102730007274000400501D7C00D009A4001009CC64
:10274000008008F40010081C01B807440168076CF9
:102750000128079401E806BC01B806E40188060CCC
:10276000026006340238065C0218068402F005ACEA
:1027700002D805D402B805FC02980524038005742C
:10278000035005C4032805140400056404D804B4E8
:1027900004B0042C058004A40558041C06280494E5
:1027A0000600040C07D803AC07A8034C087803EC18
:1027B0000848038C092003A40AD0021C0BA802AC11
:1027C0000C2802FC0C0802C40DB801140E9801B4C8
:1027D0000E38012C0FE000540FB8007C0F8800A4C5
:1027E0000F4800F40F28FFFC0FC0F9000000008C18
:1027F000030800AE035000D603A000F703F0001852
:10280000044001380490015904E0017A0430029A2E
:10281000048002BB04D002FC0470032605C00386BA
:102820000630079709A00F750D201C520E401F1F80
:102830000F6022FF0F803E0400081D900058091C05
:1028400001B007A801C80634023006C002C0054C1A
:10285000036805D80318056404D004F00498047CC8
:1028600005600408063004940600042007D003AC79
:1028700007A80338088003C408580350093003DC54
:10288000090803680AD802F40AB002800B88020C17
:102890000C6002980C3002240DF801B00DC0013C10
:1028A0000E8001C80E3001540FB800B40F2800E0AC
:1028B0000F00000400401D900060091C01B007A833
:1028C00001D00634023806C002C8054C036805D89A
:1028D0000318056404D804F00498047C0560040817
:1028E000063004940600042007D003AC07A8033880
:1028F000088003C408580350093003DC0908036842
:102900000AE002F40AB802800B88020C0C600298FC
:102910000C3002240DF801B00DC0013C0E8001C83E
:102920000E3001540FB800B40F2800E00F0000046F
:10293000000016D800C006AC0178058002C004541F
:102940000348042804E803FC049803D0055003A4BA
:102950000618037807D8024C08A80220097002F470
:10296000093802C80A08029C0BD001700C9001447F
:102970000D5001180EF800EC0E8800C00F00000486
:1029800000681D4C00500B94005809DC00500824CE
:1029900001A8076C012807B401C006FC01700644B9
:1029A0000228068C02F005D402B8051C03880564D1
:1029B000035805AC033005F40310053C04E8048417
:1029C00004C804CC04A804140590045C057004A495
:1029D000055804EC053804340620047C060804C4B9
:1029E00006F0030C07D8035407C8039C07B003E4A0
:1029F0000798032C08800374087003BC085803046C
:102A00000948034C09300394091803DC090803241E
:102A10000AF0026C0AE002B40AC802FC0AB00244DE
:102A20000BA0028C0B8802D40B70021C0C580264A1
:102A30000C4002AC0C2802F40C10023C0DF0018496
:102A40000DD801CC0DB801140E98015C0E7001A4D4
:102A50000E4801EC0E1801340FD8007C0F8800C41A
:102A60000F0800FC0F000000000000000000000044
:102A70000000000000000000000000000000000056
:102A800000000000000000000000000000401F45A2
:102A90000060094F0010095C00C0086B0070087DE1
:102AA0000020089200D007AC008007CC003007DE81
:102AB00000E006230190065E014006A601F005FF36
:102AC00001A0056D025005F30200059603B0045AFB
:102AD000046004400510044806C0036E077003A894
:102AE000082003EB09D002230B8002410C3002398D
:102AF0000DE001040E9001A20E4001170FF00069D5
:102B00000FA000A20F5000C60F0000DD0FB0FFEBBA
:102B10000F60FF38006009BB00D0076702F005B204
:102B200002C805EE02A0053E03780598035005F2A1
:102B30000328055E040005BF04D80432058804B4E8
:102B40000560043A063804D80610046C07E803F858
:102B500007C003980898032E097003D40948036F2F
:102B60000A10030F0BE0029F0BA8022B0C6002B3AC
:102B70000C4002980DF001FC0DA0014C0E70019C60
:102B80000E40011D0FF000480FC8006C0FA000EDB3
:102B90000F60FFFE0F48FE380060093B0038094017
:102BA0000010094600E8084C00C008520098085977
:102BB000007008620048086C0020087600F8078062
:102BC00000D0079100A8079C008007A8005807BB09
:102BD000003007D0000807E300E006F800B8061050
:102BE0000190062D016806500140067201180690FA
:102BF00001F005C201C805EC01A0052802780567AF
:102C0000025005B2022805EE0200053E03D80498E2
:102C100003B004F20388045E046004BF0438043285
:102C2000051004B405E8033A06C003D80698036CFF
:102C3000077003F8074803980820032E09F802D408
:102C400009D0026F0AA8020F0B80029F0B58022BBB
:102C50000C3002B30C08022F0DE001980DB801FCF6
:102C60000D90014C0E68019C0E40011D0FF00048B4
:102C70000FC8006C0FA000ED0F60FFFE0F48FE04B0
:102C800000700DD8004804AC0158038002D80254EB
:102C900003800228043802FC040002D005C801A405
:102CA000069801780770014C08480120091801F4C2
:102CB00009F000C80AC8009C0BA000700C7000440A
:102CC0000D3800180E0000EC0EA8FFC00FE8FE043F
:102CD00000001B54006009640010097400C00884DF
:102CE0000070089C002008B800D007D800800700BA
:102CF0000130072C01E00668019006AC0140060097
:102D000002F0056802A005E00250057403000524E6
:102D100004B004F0046004DC051004E406C00304FD
:102D200008700330092003780B8002600DE001A8D1
:102D30000E4001680FA000C00F0000E80F60FF0404
:102D400000801AD8009808AC012007800250065471
:102D500003C80528045805FC040005D005B004A4E8
:102D6000066804780728044C08E8032009B003F437
:102D7000097003C80A38039C0BF802700CB00244B7
:102D80000D6802180E0802EC0E8801C00F8800F0D2
:102D90000F00000000A00F5C0060096900100979B5
:102DA00000C0088C007008A2002008BD00D007DE1B
:102DB000008007050130073401E0066D019006B27E
:102DC0000140060702F0056D02A005E80250057BF0
:102DD0000300052B04B004F8046004EB06C00335BF
:102DE0000920037F0B8002650DE001B00E40011D3C
:102DF0000FF000480FC8006C0FA000ED0F60FFFE41
:102E00000F48FE5461726765744265643A00932D01
:102E10003F2DCF2C7F2C972B132B00008B2A7F2943
:102E20002F29B3283728EB2733271C151C143A21E8
:102E3000002243141F1F132E5072696E7465722096
:102E400073657420696E746F206472792072756E78
:102E5000206D6F646520756E74696C207265737483
:102E60006172742100206D61726B6564206465631A
:102E70006F75706C656400206D61726B65642064B1
:102E80006566656374003A20776F726B696E6700E0
:102E90003A2074656D702073656E736F722064657F
:102EA00066656374004F746865723A0068656174A2
:102EB000656420626564000000420FA1071605D01A
:102EC000030D038B022E02E801B201860163014566
:102ED000012C0117010401F40000000000000000B3
:102EE00000000000000000000024F403D950C38E4D
:102EF000B1C2A23D96828B3582127AE372816CCB8D
:102F000066A861015DC758EB546151204E1E4B56B7
:102F100048C14559431A41013F093D2F3B7139CD05
:102F2000374036C93465331432D430A32F802E6B2A
:102F30002D632C672B752A8E29B028DC2710274B90
:102F4000268F25D9242B248223E0224322AC211A68
:102F5000218D200420801F001F841E0C1E971D261B
:102F60001DB81C4E1CE61B821B201BC11A641A0ACA
:102F70001AB2195D190A19B9186A181C18D11788DC
:102F8000174017FA16B51673163116F115B31576E4
:102F9000153A150015C7148F1458142214EE13BADD
:102FA00013881356132513F612C71299126C124088
:102FB000121512EB11C1119811701148112111FB5A
:102FC00010D610B1108D106910461024100210E1B7
:102FD0000FC00FA00F800F610F420F230F060FE8E5
:102FE0000ECB0EAF0E930E770E5C0E410E270E0D1C
:102FF0000EF30DDA0DC10DA80D900D780D600D4981
:103000000D320D1B0D050DEF0CD90CC30CAE0C9938
:103010000C850C700C5C0C480C350C210C0E0CFB58
:103020000BE80BD60BC40BB20BA00B8E0B7D0B6BFE
:103030000B5A0B4A0B390B290B180B080BF80AE932
:103040000AD90ACA0ABB0AAC0A9D0A8E0A800A710A
:103050000A630A550A470A390A2C0A1E0A110A0489
:103060000AF709EA09DD09D009C409B709AB099FC4
:1030700009920987097B096F09630958094C0941BD
:103080000936092B09200915090A090009F508EB79
:1030900008E008D608CC08C208B808AE08A4089A08
:1030A00008900887087D0874086B08610858084F65
:1030B0000846083D0834082C0823081A0812080995
:1030C000080108F807F007E807E007D807D007C8A5
:1030D00007C007B807B007A807A107000000000055
:1030E0000000F10000000000000000C4000000002B
:1030F00000000000F00000000000000000C300001D
:10310000000000000000F30000000000000000F4D8
:103110000000000000000000AF0000000000000000
:1031200000AC0000000000000000F3000000000000
:103130000000005F00000000000000005B000000D5
:103140000000000000570000000000000000F30035
:1031500000000000000000EE000000000000000081
:10316000ED0000000000000000EB00F630ED30E460
:1031700030DB301A3111310831FF303E3135312C1E
:1031800031233162315931503147310000000400A0
:103190006B310000000400733100000004007B313B
:1031A00000000004008331534420696E6974206676
:1031B00061696C0046696C652073656C6563746554
:1031C00064002053697A653A0046696C65206F7027
:1031D000656E65643A0066696C652E6F70656E2079
:1031E0006661696C656400A031993192318B31530D
:1031F00044206361726420696E7365727465640053
:10320000534420636172642072656D6F766564005B
:10321000686F6D654178697320007C3C3E5E2B3D94
:103220003F2F5B5D3B2C2A225C007A2D70726F620F
:103230006520646964206E6F7420756E74726967AE
:1032400067657220616674657220676F696E6720BA
:103250006261636B20746F20737461727420706F8D
:10326000736974696F6E2E0020593A0020583A0035
:103270005A2D70726F62653A005A2D70726F6265D6
:10328000206661696C6564007A2D70726F626520DA
:10329000747269676765726564206265666F7265DE
:1032A000207374617274696E672070726F62696EE8
:1032B000672E0055495F414354494F4E5F484F4D7B
:1032C00045414C4C20008025000040380000004B58
:1032D00000008070000000960000C0DA000000E1ED
:1032E0000000002C010008B2010000C2010000F43F
:1032F00001000084030090D0030000E803000008F0
:10330000070020A1070000100E0040420F0060E3FC
:1033100016000000000055495F414354494F4E5F7D
:1033200045504F534954494F4E200055495F414342
:1033300054494F4E5F5A504F534954494F4E5F4680
:10334000415354200055495F414354494F4E5F5902
:10335000504F534954494F4E5F46415354200055F6
:10336000495F414354494F4E5F58504F5349544968
:103370004F4E5F46415354200055495F41435449E5
:103380004F4E5F5A504F534954494F4E20005549B4
:103390005F414354494F4E5F59504F534954494F31
:1033A0004E200055495F414354494F4E5F58504F9E
:1033B000534954494F4E200050726F746F636F6CC5
:1033C0002076657273696F6E206368616E676564ED
:1033D0002C20757067726164696E67005472616E4B
:1033E00073666F726D6174696F6E206D617472695E
:1033F000783A00457874722E004550523A332000D6
:103400004550523A3220004550523A312000455042
:10341000523A3020004D61726B656420616C6C2003
:1034200065787472756465727320617320756E6A55
:10343000616D6D65642E0053656C656374457874C9
:1034400072756465723A003A00546172676574453A
:10345000787472000000206A616D2000206465634A
:1034600020002064656620000400030020002F0077
:103470006572726F722077726974696E6720746FFB
:103480002066696C6500504944204175746F7475FD
:103490006E652066696E6973686564202120506CD2
:1034A00061636520746865204B702C204B69206136
:1034B0006E64204B6420636F6E7374616E7473204E
:1034C000696E2074686520436F6E66696775726106
:1034D00074696F6E2E68206F7220454550524F4DB3
:1034E00000446F6E6520736176696E672066696C53
:1034F000652E00436F6E6669673A0057726F6E679C
:1035000020636865636B73756D005A2D70726F620E
:10351000652073746174653A007A5F6D696E3A0074
:103520004C2000482000795F6D696E3A00785F6D2D
:10353000696E3A00656E6473746F707320686974A5
:103540003A200044656275674C6576656C3A0050B8
:1035500072696E7465724D6F64653A434E430050F4
:1035600072696E7465724D6F64653A4C6173657211
:10357000005072696E7465724D6F64653A464646D6
:10358000000000003FCDCC4C3D0AD7A33B6F120397
:103590003A00002110422063308440A550C660E705
:1035A00070088129914AA16BB18CC1ADD1CEE1EFF8
:1035B000F13112100273325222B5529442F772D690
:1035C00062399318837BB35AA3BDD39CC3FFF3DE48
:1035D000E36224433420040114E664C774A44485E0
:1035E000546AA54BB528850995EEE5CFF5ACC58D98
:1035F000D55336722611163006D776F6669556B430
:10360000465BB77AA719973887DFF7FEE79DD7BCE7
:10361000C7C448E5588668A778400861180228237F
:1036200038CCC9EDD98EE9AFF9488969990AA92B37
:10363000B9F55AD44AB77A966A711A500A333A12CF
:103640002AFDDBDCCBBFFB9EEB799B588B3BBB1A87
:10365000ABA66C877CE44CC55C222C033C600C411F
:103660001CAEED8FFDECCDCDDD2AAD0BBD688D49D7
:103670009D977EB66ED55EF44E133E322E511E706F
:103680000E9FFFBEEFDDDFFCCF1BBF3AAF599F7827
:103690008F8891A981CAB1EBA10CD12DC14EF16FD8
:1036A000E18010A100C230E320045025404670673D
:1036B00060B9839893FBA3DAB33DC31CD37FE35E69
:1036C000F3B1029012F322D232354214527762568D
:1036D00072EAB5CBA5A89589856EF54FE52CD50D79
:1036E000C5E234C324A014810466744764245405DD
:1036F00044DBA7FAB79987B8975FE77EF71DC73C09
:10370000D7D326F2369106B016576676761546342C
:10371000564CD96DC90EF92FE9C899E9898AB9AB18
:10372000A94458654806782768C018E1088238A37C
:10373000287DCB5CDB3FEB1EFBF98BD89BBBAB9AA8
:10374000BB754A545A376A167AF10AD01AB32A92CC
:103750003A2EFD0FED6CDD4DCDAABD8BADE89DC9B8
:103760008D267C076C645C454CA23C832CE01CC11C
:103770000C1FEF3EFF5DCF7CDF9BAFBABFD98FF848
:103780009F176E367E554E745E932EB23ED10EF06C
:103790001E00401454456E6453746F7020203A2507
:1037A0006470004173657461205A20706F696B6B9F
:1037B00065616D613A2554326D6D004173657461C8
:1037C000205920706F696B6B65616D613A255431CA
:1037D0006D6D004173657461205820706F696B6B6B
:1037E00065616D613A2554306D6D0041736574619A
:1037F0002074756C6F7374696D656E20706F696B82
:103800006B65616D6174005A2D616E747572696EBD
:10381000206B6F726B6575733A257A6800254433A7
:103820002033206B6F70696F746100254432203241
:10383000206B6F70696F7461002544312031206BFB
:103840006F70696F00254430204569206B6F706987
:103850006F7461002558352056616C69747365205A
:10386000707572732E2036002558342056616C69AD
:1038700074736520707572732E20350025583320BF
:1038800056616C6974736520707572732E203400F4
:10389000507572736F74696E2036206569005075BB
:1038A00072736F74696E203520656900507572738C
:1038B0006F74696E2034206569004CE16D70EF20F3
:1038C00036203A2565352F2545350243004CE16DFC
:1038D00070EF2035203A2565342F2545340243000A
:1038E0004CE16D70EF2034203A2565332F254533A8
:1038F000024300202542436D6D00052565630200EB
:10390000052565632F254563020000256F7300259B
:103910005566206D2054756C6F73746574747500F2
:10392000255566206D0025557400583A25783020BD
:10393000593A257831004D756C3A20256F6D20205D
:1039400020466C6F773A20256F66005A3A25783208
:103950002020427566203A20256F420007256542E7
:103960002F2545620200052565632F254563020763
:103970002565422F2545620200256F73004275665A
:103980003A20256F42004D756C3A20256F6D252534
:103990002520FD202020453A202578346D005669E9
:1039A00072746175733AFD20256F662525252020E8
:1039B000205A3A257832000E202565622F2545626F
:1039C000B020593A257831000A202565302F254549
:1039D00030B020583A257830004B69656C69004D4D
:1039E000756B617574657474753A2542436D6D002D
:1039F0004D756B61757465747475004C69696D61A2
:103A00007075696B6B6F005669687265C3A420504E
:103A10004554207465697070690053696E696E65FC
:103A20006E207061706572692074656970706900DC
:103A30004B6170746F6E004275696C6454616B0009
:103A400045692070696E6E6F746574746100004121
:103A50006C757374616E2070696E74612076616C30
:103A60006974747500416C757374616E2070696E51
:103A70006E6F74650056616C6D69696E610050759A
:103A800072736F7474696D656E2074756B6F7300FB
:103A90006CE16D70EF74696C61742E2E2E004F64B2
:103AA0006F74746161207461766F69746574746198
:103AB00000707572736F7474696D6574004B6C6916
:103AC0006B2075757369206B75756D656E6E75739A
:103AD000004F68697461204D3130362025466900F9
:103AE000536572766F207061696B6B613A20256F48
:103AF00053004175746F6D2E7461736F3A20256C9D
:103B00006C00507265737320456E7465722077681F
:103B1000656E20646F6E650054756C2E6C616E6B03
:103B20006120796CEF732F616C6173005072657363
:103B30007320552F44204B657920746F206D6F766C
:103B400065005661696864612074756C6F73747583
:103B5000736C616E6B610056616968646120747595
:103B60006C6F737475736C616E6B61005A206D6954
:103B70006B726F61736B656C6C75733A256F596D01
:103B80006D004C6F706574612074756C6F73747523
:103B90007300536C6F7742616E67004A6F75746F84
:103BA00061696B61004154582076697274616C2EB2
:103BB000206F6E2F65690054756C6F737465747433
:103BC00075004C616E6B612074756C6F73746574F5
:103BD00074750054756C6F7374757361696B6100F3
:103BE000003A002070E16976E1E1200054756C6FC5
:103BF0007374696E2076616C6D69732E0053442076
:103C00006B6F72747469206F6E005344206B6F7217
:103C100074746920706F6973004F646F74746161AC
:103C200020796B732E3A255855206D6D004F646FC7
:103C300074746161206CE16D6D2E2025585402432F
:103C4000005461736F2064656C7461004C61736B28
:103C500065207461736F7400417365746120503323
:103C600000417365746120503200417365746120B6
:103C70005031005A206B616C6962726F696E7469B1
:103C8000004173657461205A3D3000506F69737450
:103C900061206D697461742E004EE17974E1206DCC
:103CA0006974617400507568616C6C75736B6572D2
:103CB000726F696E3A256F66252525004E6F706517
:103CC00075736B6572726F696E3A256F6D25252568
:103CD00000072565622F2545620243207E256F621D
:103CE0000045333A2565322F25453202437E256F44
:103CF000320045323A2565312F25453102437E2574
:103D00006F310045313A2565302F25453002437E1D
:103D1000256F3000052565632F2545630243207E0E
:103D2000256F43005075736B7572693A256F4200B9
:103D30004C6164617461616E2E2E2E004C61646171
:103D400074747520454550524F4D004B6F6B6F6F2B
:103D50006E70616E6F0054616C6C656E6E6574742C
:103D60007520454550524F4D004B6F6B6F6F6E7015
:103D7000616E6F004D6F6F74746F726920706F6940
:103D800073206BE179742E00506F697374657474DD
:103D900075004B75756D656E74616120416C75734E
:103DA000746161004B75756D656E7461612050754D
:103DB00072736F742E00546F696D696E74613A2569
:103DC0006C61005049440042616E6742616E670059
:103DD000592D7461736F697475733A255879005859
:103DE0002D7461736F697475733A25587800504962
:103DF00044204D61783A25584400416A6F204D6156
:103E0000783A25584D00416A6F204D696E3A255821
:103E10006D0050494420443A2558640050494420DC
:103E2000493A2558690056616C766F6E746120506E
:103E3000574D3A25584D004B756F6C6C7574206169
:103E4000696B613A2558700050494420503A255812
:103E5000700048616C6C696E74613A255868004561
:103E600074656E656D696E656E20717561643A2565
:103E70005861004574656E656D696E656E206C698C
:103E80006E3A25586C00537461622E41696B613A39
:103E9000255877004B69696864797479733A2558B5
:103EA00041004D616B732E2046523A255846004B17
:103EB000E1796E6E697374E146523A2558660041A5
:103EC000736B656C74612F4D4D3A255365005369D2
:103ED0006972746F6E6F706575733A256F63005900
:103EE0006C6569736574005B6D696E5D20303D7350
:103EF000616D6D75746100546F696D65746F6E20CE
:103F00006AE16C6B65656E3A20256970004D616BE6
:103F1000732E20746F696D65746F6E005B6D696ED2
:103F20005D20303D73616D6D75746100546F696D16
:103F300065746F6E206AE16C6B65656E3A20256969
:103F400073004D6F6F74746F726920746F696D6563
:103F5000746F6E004173657461206E6F702E206DFA
:103F6000616B732E004173657461206E6F702E203B
:103F70003735252525004173657461206E6F702EDD
:103F8000203530252525004173657461206E6F70E2
:103F90002E2032352525250053616D6D7574612005
:103FA0007475756C6574696E005475756C657469AB
:103FB0006E206E6F706575733A2546732525250052
:103FC0005475756C657474696D656E206E6F70657F
:103FD0007573004D696E3A25737A204D61783A25E4
:103FE000735A005A3A257832206D6D004D696E3A49
:103FF000257379204D61783A25735900593A25780F
:1040000031206D6D004D696E3A257378204D6178D1
:104010003A25735800583A257830206D6D004D6967
:104020006E3A25737A204D61783A25735A005A3AD0
:10403000257832206D6D004D696E3A257379204DDB
:1040400061783A25735900593A257831206D6D0011
:104050004D696E3A257378204D61783A2573580082
:10406000583A257830206D6D0031206B6C696B6B90
:10407000617573203D2031206D6D00453A25783300
:10408000206D6D00004D616B732072616A6F697401
:1040900074696D657374613A25735A004D696E2EAB
:1040A0002072616A6F697474696D657374613A2511
:1040B000737A005A3A257832206D6D00004D616B9D
:1040C000732072616A6F697474696D657374613AA3
:1040D000257359004D696E2E2072616A6F69747480
:1040E000696D657374613A25737900593A257831A1
:1040F000206D6D00004D616B732072616A6F697491
:1041000074696D657374613A257358004D696E2E3C
:104110002072616A6F697474696D657374613A25A0
:10412000737800583A257830206D6D00004D616B32
:10413000732072616A6F697474696D657374613A32
:1041400025735A004D696E2E2072616A6F6974740E
:10415000696D657374613A25737A005A3A2578322D
:10416000206D6D2025647A25645A00004D616B73C3
:104170002072616A6F697474696D657374613A2540
:104180007359004D696E2E2072616A6F697474698B
:104190006D657374613A25737900593A2578312039
:1041A0006D6D2025647925645900004D616B732085
:1041B00072616A6F697474696D657374613A2573AD
:1041C00058004D696E2E2072616A6F697474696D52
:1041D000657374613A25737800583A257830206DFC
:1041E0006D20256478256458004B6F74693A256604
:1041F0005A004B6F7469205A3A25665A004B6F7407
:104200006920593A256659004B6F746920583A2540
:104210006658004D616B732E3A25667A004D616BCE
:10422000732E205A3A25667A004D616B732E205901
:104230003A256679004D616B732E20583A256678D1
:10424000005379EF7474EF6E6F7065757300506F83
:104250006973746120746965646F73746F004B6F68
:1042600072747469206173657465747475004B6F42
:104270007274746920706F69737465747475004A20
:1042800061746B612074756C6F7374757374610005
:1042900054756C6F737475737461756B6F005475BE
:1042A0006C6F73746120546965646F73746F00562A
:1042B000756F646F6E20706F6973746F00536969F6
:1042C0007272E16AE16C6B65656E3A254F61004D73
:1042D000696E2E6469737420203A254F6400426130
:1042E000636B736C2E2020203A254F62005065725C
:1042F000757574612020203A254F7200254F3220B9
:104300004F5053206E6F70656100254F31204F5024
:1043100053206E6F726D61616C6900254F30204FC4
:104320005053206569004B756976612D616A6F3A5B
:10433000256464005669726865657420203A2564B6
:104340006500546965646F742020203A2564690013
:10435000546F697374612020203A25646F004C61AA
:1043600074616120202020454550524F4D0054611A
:104370006C6C656E6E6120454550524F4D004B6927
:104380006968747976797973005A2D41736B656C1D
:10439000203A25614A0041736B656C2020203A2544
:1043A000616A005369697272E13A25615A00536982
:1043B000697272E15A203A25615A00536969727232
:1043C000E159203A256159005369697272E1582018
:1043D0003A2561580054756C6F7374613A25617A9F
:1043E0000054756C6F737461205A3A25617A0054D9
:1043F000756C6F73746120593A2561790054756C3E
:104400006F73746120583A25617800417365746157
:10441000206CE16874EF7069737465002558322070
:1044200056616C6974736520707572732E33002544
:1044300058312056616C6974736520707572732EE3
:1044400032002558302056616C6974736520707590
:1044500072732E3100507572736F74696E20332041
:10446000456900507572736F74696E20322045691A
:1044700000507572736F74696E2031204569005069
:104480007572736F2033203A2565322F254532022D
:104490004300507572736F2032203A2565312F2505
:1044A0004531024300507572736F2031203A256503
:1044B000302F254530024300416C757374616E20C6
:1044C0003A2565622F254562024300507572736F6D
:1044D000742E207061696B6B61005A205061696BAA
:1044E0006B61206E6F706561005A205061696B6B63
:1044F000610059205061696B6B61206E6F7065615E
:104500000059205061696B6B610058205061696BE4
:104510006B61206E6F7065610058205061696B6B34
:10452000610053616D6D757461206D6F6F74746F90
:104530007269004173657461206CE16874EF7069A1
:10454000737465004AE1E1686479747973005661B7
:104550006C6F743A256C6F004573696CC3A46D6D04
:104560006974797320414253004573696CC3A46D2B
:104570006D6974797320504C41004B6F7469205AF7
:10458000004B6F74692059004B6F74692058004BC1
:104590006F7469206B61696B6B69004B6F74692084
:1045A00064656C7461005669726865656E657473E4
:1045B000696E74E1005344206B6F7274746900502B
:1045C0007572736F74696E005061696B6B61004B3B
:1045D0006F6B6F6F6E70616E6F00256F6500506955
:1045E0006B612D61736574756B7365740054616BD9
:1045F000616973696E01002A2A2A2A2056495248A5
:1046000045202A2A2A2A004569205344206B6F72CC
:10461000747469610056616C6D69730054756C6FD8
:104620007374610054756C6F737461612E2E2E006B
:104630004569004B796C6CE1004E2F410053616D70
:104640006D7574610050E1E16C6C6500456E6453FA
:10465000746F70203A25647000536574205A206F7F
:1046600066667365743A2554326D6D005365742027
:1046700059206F66667365743A2554316D6D005329
:1046800065742058206F66667365743A2554306DE2
:104690006D00536574207072696E74206F66667366
:1046A000657473005A2D70726F622079756B736533
:1046B0006B6C6967693A257A68002544332033209A
:1046C0006B6F707961002544322032206B6F7079F6
:1046D00061002544312031206B6F707961002544E1
:1046E00030204B6F7079616C616D61002558352009
:1046F0004578742E2036E2809979692073656320AD
:1047000000255834204578742E2035E280996920A0
:104710007365632000255833204578742E2034E2D9
:10472000809975207365632000204578742E2036AB
:10473000E280997969206B6170617420002045786E
:10474000742E2035E2809969206B617061742000BD
:104750004578742E2034E2809975206B6170617405
:10476000005369632E2036203A2025453502430048
:104770005369632E2035203A2025453402430053E7
:1047800069632E2034203A2025453302430020253A
:104790006F436D6D00052565630200052565632F78
:1047A000254563020000256F7300255566206D20A6
:1047B00079617A696C646900255566206D0025551C
:1047C0007400583A25783020593A257831004D75D3
:1047D0006C3A20256F6D202020466C6F773A20259B
:1047E0006F66005A3A2578322020427566203A20BA
:1047F000256F4200072565422F25456202000525E9
:1048000065632F25456302072565422F2545620212
:1048100000256F73004275663A20256F42004D7582
:104820006C3A20256F6D25252520FD202020453A56
:10483000202578346D0050727A65703AFD20256F1E
:104840006625252520205A3A257832000E20256538
:10485000622F254562B020593A257831000A20257B
:1048600065302F254530B020583A2578300044690E
:104870006C004469676572203A20256F436D6D00B6
:1048800044696765720059617069736B616E0059A4
:104890006573696C205045542054617065004D610A
:1048A000766920426F7961204B6167696469004BCA
:1048B0006170746F6E004275696C6454616B004B7B
:1048C00061706C616D6120596F6B00004B61706CA1
:1048D000616D61204B616C696E6C69676900546140
:1048E000626C612075737475206B61706C616D61B1
:1048F0000042656B6C656D65204D6F647500457891
:104900007472756465722074616B696C64690069A6
:1049100063696E2062656B6C6579696E00497374BA
:104920006E696C656E20736963616B6C696B6C6139
:104930007200697369746D616B206963696E2074BC
:10494000696B6C6179696E00457874727564657223
:104950006C6172692074656B726172004D31303622
:1049600059692061746C612025466900536572762F
:104970006F20706F732E3A20256F53004F746F2095
:104980007365766979653A20256C6C0050726573A1
:104990007320456E746572207768656E20646F6E53
:1049A0006500616C6D616B206963696E206365767B
:1049B0006972696E00507265737320552F44204BE5
:1049C000657920746F206D6F76650046696C616D46
:1049D000656E742064656769737469720046696CFA
:1049E000616D656E74206465676973746972005ADD
:1049F0002042616279737465702E3A256F596D6D2E
:104A00000059617A6469726D6179692064757264B4
:104A1000757200536C6F7742616E6700426F7374FA
:104A200061205A616D616E0041545820677563754D
:104A3000206F6E2F6F66660079617A696C64690019
:104A400046696C616D656E742068617263616E6445
:104A5000690059617A6469726D61205A616D616E95
:104A60006900003A002067756E200059617A696319
:104A7000692048617A69720053442043617264205E
:104A800054616B696C646900534420436172642013
:104A900043696B6172696C64690042656B6C653A6D
:104AA00020255855206D6D0042656B6C652053695B
:104AB000632E2025585402430044656C7461796963
:104AC000207365766979656C6500536576696579EB
:104AD000692048657361706C6100536574205033C0
:104AE0000053657420503200536574205031005AD1
:104AF000204B616C69622E005A3D3027612061793C
:104B000061726C61004F6C63756D752053696669E5
:104B1000726C61004F6C63756D7520476F737465BF
:104B20007200416B697320436172702E203A256FC9
:104B3000662525250048697A20436172702E3A2542
:104B40006F6D25252500072565622F2545620243E7
:104B5000207E256F620045333A2565322F25453288
:104B600002437E256F320045323A2565312F2545B7
:104B70003102437E256F310045313A2565302F25BE
:104B8000453002437E256F3000052565632F25459E
:104B9000630243207E256F43004F6E62656C6C6537
:104BA0006B3A256F420059756B6C75796F722E2EBA
:104BB0002E00454550524F4D2764616E206361675A
:104BC00072696C6469004B6F6E66696775726173B8
:104BD000796F6E00454550524F4D2761206B6179CA
:104BE000646564696C6469004B6F6E6669677572B1
:104BF0006173796F6E004D6F746F726C6172204BD0
:104C00006170616C690044555244550042656420EE
:104C10004973696E69796F7200457874727564655D
:104C200072204973696E69796F720045796C656DA0
:104C30003A256C61005049440042616E6742616EE2
:104C40006700592D4F667365743A25587900582DC1
:104C50004F667365743A25587800504944204D6179
:104C6000783A25584400537572756375204D617804
:104C70003A25584D00537572756375204D696E3A2B
:104C800025586D0050494420443A25586400504945
:104C90004420493A255869004B6F6E74726F6C203E
:104CA00050574D3A25584D00426F73205A616D6E32
:104CB0003A2558700050494420503A255870004B0E
:104CC0006F6E74726F6C3A2558680047656C697333
:104CD0006D697320717561643A2558610047656C90
:104CE00069736D6973206C696E3A25586C00537452
:104CF00061622E54696D653A2558770049766D6575
:104D00003A255841004D61782046523A25584600D0
:104D10004261736C616E6769632046523A2558663A
:104D2000004164696D2F4D4D3A2553650042617510
:104D300064726174653A256F630047656E656C0047
:104D40005B6D696E5D20303D4B6170616C69004B3D
:104D50006170616D61207375722E3A202569700053
:104D60004D61782E20426F737461005B6D696E5DDA
:104D700020303D4F6666004D6F746F72204B61703E
:104D8000613A20256973004D6F746F726C617220F7
:104D9000426F7374610046616E2054616D204163FF
:104DA000696B0046616E276920417961726C6120F0
:104DB00037352525250046616E27692041796172C6
:104DC0006C612035302525250046616E276920411C
:104DD0007961726C612032352525250046616E2788
:104DE00069204B617061740046616E2048697A6980
:104DF0003A2546732525250046616E2048697A6963
:104E0000004D696E3A25737A204D61783A25735AC0
:104E1000005A3A257832206D6D004D696E3A25733F
:104E200079204D61783A25735900593A2578312017
:104E30006D6D004D696E3A257378204D61783A2585
:104E4000735800583A257830206D6D004D696E3AE0
:104E500025737A204D61783A25735A005A3A25789D
:104E600032206D6D004D696E3A257379204D617861
:104E70003A25735900593A257831206D6D004D69F6
:104E80006E3A257378204D61783A25735800583A68
:104E9000257830206D6D00312074696B203D203104
:104EA000206D6D00453A257833206D6D00004D6111
:104EB0007820656E6473746F703A25735A004D697B
:104EC0006E20656E6473746F703A25737A005A3A77
:104ED000257832206D6D00004D617820656E647319
:104EE000746F703A257359004D696E20656E647356
:104EF000746F703A25737900593A257831206D6DB9
:104F000000004D617820656E6473746F703A25738C
:104F100058004D696E20656E6473746F703A257326
:104F20007800583A257830206D6D00004D6178206A
:104F3000656E6473746F703A25735A004D696E2004
:104F4000656E6473746F703A25737A005A3A2578E7
:104F500032206D6D2025647A25645A00004D6178F9
:104F600020656E6473746F703A257359004D696ED5
:104F700020656E6473746F703A25737900593A2511
:104F80007831206D6D2025647925645900004D61CC
:104F90007820656E6473746F703A257358004D699C
:104FA0006E20656E6473746F703A25737800583A9A
:104FB000257830206D6D202564782564580044657F
:104FC0006C7461205369662E476F6E2E48697A3A79
:104FD00025665A005A2769205369662E476F6E2E40
:104FE00048697A3A25665A005927796920536966D3
:104FF0002E476F6E2E48697A2E3A2566590058273B
:1050000069205369662E476F6E2E48697A2E3A25BD
:105010006658004D61783A25667A004D6178205ACD
:105020003A25667A004D617820593A256679004D17
:10503000617820583A25667800496C65726C656D18
:105040006500446F73796179692053696C004B6125
:10505000727469204261676C61004B6172746920EF
:1050600043696B6172004261736B697961204465C9
:1050700076616D004261736B697969204475726174
:105080006B6C617400446F7379612059617A646953
:105090007200416E7469204F6F7A65004D6F7665BE
:1050A0002061667465723A254F61004D696E2E204D
:1050B0004D65736166653A254F6400456B73656E97
:1050C00020426F736C2E3A254F620047657269204B
:1050D00043656B6C2E3A254F7200254F32204F509E
:1050E000532048697A6C6900254F31204F50532076
:1050F0004B6C6173696B00254F30204F5053204B30
:105100006170616C6900426F7374612043616C6906
:10511000733A25646400486174616C6172203A25B9
:1051200064650042696C67692020203A2564690043
:105130004563686F202020203A25646F0045455064
:10514000524F4D2764616E20636167697200454567
:1051500050524F4D2761206B617964657400497628
:105160006D65005A2D4A65726B203A25614A0058D8
:105170002D59204A65726B203A25616A0048617298
:10518000656B6574203A25615A00486172656B65EC
:1051900074205A203A25615A00486172656B657423
:1051A0002059203A25615900486172656B65742069
:1051B00058203A2561580059617A6D6120482E3A8D
:1051C00025617A0059617A6D6120482E205A3A256E
:1051D000617A0059617A6D6120482E20593A256123
:1051E000790059617A6D6120482E20583A256178FE
:1051F000004F726967696E206920417961726C6144
:105200000025583220457874722E2033277520539C
:1052100065630025583120457874722E2032277935
:1052200069205365630025583020457874722E201C
:105230003127692053656300457874722E20332727
:1052400069204B61706100457874722E20322769A5
:10525000204B61706100457874722E2031276920DF
:105260004B617061005369632E2033203A2025453D
:10527000320243005369632E2032203A2025453103
:105280000243005369632E2031203A202545300225
:1052900043005461626C61205369633A2025456282
:1052A000024300486172656B657469005A20486961
:1052B0007A6C6920486172656B657469005A204890
:1052C0006172656B65746900592048697A6C692060
:1052D000486172656B657469005920486172656B3D
:1052E00065746900582048697A6C69204861726564
:1052F0006B657469005820486172656B657469005C
:105300004D6F746F7275204B61706174004F7269DC
:105310006A696E6520617961726C6100536F6775AF
:105320006D61004973696B6C6172203A256C6F0086
:10533000414253204F6E20497369746D6100504C97
:1053400041204F6E20497369746D61005A20532EBD
:10535000476F6E646572005920532E476F6E646507
:1053600072005820532E476F6E6465720048657056
:1053700073696E6920532E476F6E646572004465D1
:105380006C7461796920536966722E20476F6E6470
:105390002E00446562756767696E67005344204B51
:1053A000617274004578747275646572004B6F6E3B
:1053B000756D2D486172656B657400596170696C1B
:1053C000616E6469726D6100256F650048697A6C71
:1053D00069204179617200476572692001002A2ABB
:1053E0002A2A2048415441202A2A2A2A00534420AC
:1053F0004B61727420596F6B00426F737461005976
:10540000617A69796F720059617A69796F722E2EAB
:105410002E0048617969720045766574004E2F410F
:10542000004B6170616C69004163696B00456E649B
:1054300053746F7020202020203A20256470005083
:10544000727A6573756E2077205A203A2554326D32
:105450006D0050727A6573756E20772059203A205E
:105460002554316D6D0050727A6573756E2077200A
:1054700058203A202554306D6D00506F6C6F7A655E
:105480006E69652077796472756B75005779732E34
:1054900020536F6E6479205A3A257A680025443388
:1054A0002033204B6F706965002544322032204B39
:1054B0006F706965002544312031204B6F70696140
:1054C00000254430204E6965206B6F7069756A0055
:1054D000255835205779626965727A20457874724B
:1054E0002E203600255834205779626965727A205B
:1054F000457874722E20350025583320577962691B
:1055000065727A20457874722E20340057796C2E9B
:1055100020457874727564657220360057796C2E58
:1055200020457874727564657220350057796C2E49
:1055300020457874727564657220340054656D700E
:105540002E4578363A2565352F25453502430054DA
:10555000656D702E4578353A2565342F2545340222
:10556000430054656D702E4578343A2565332F25F8
:105570004533024300202542436D6D0005256563D8
:105580000200052565632F254563020000256F7322
:1055900000255566206D206472756B6F77616E65AE
:1055A00000255566206D0025557400583A25783041
:1055B00020593A257831004D756C3A20256F6D20C1
:1055C0002020466C6F773A20256F66005A3A25787E
:1055D000322020427566203A20256F42000725655B
:1055E000422F2545620200052565632F254563028C
:1055F000072565422F2545620200256F730042751D
:10560000663A20256F42004D756C3A20256F6D2556
:10561000252520FD202020453A202578346D005096
:10562000727A65703AFD20256F6625252520205A5F
:105630003A257832000E202565622F254562B0207C
:10564000593A257831000A202565302F254530B09C
:1056500020583A257830004A657A796B00496E6E99
:105660006120677275626F73633A2542436D6D0006
:10567000496E6E61004B6C656A207720737A74798D
:1056800066636965005A69656C6F6E612074617349
:105690006D6120504554004E6965622E207461731F
:1056A0006D61206D61736B2E004B6170746F6E00C5
:1056B0004275696C6454616B00437A797374792024
:1056C00073746F6C0073746F6C753A00577962690C
:1056D00065727A206D6174657269616C00506F6BE0
:1056E00072796369652073746F6C75005374616EB1
:1056F00064627900456B73747275646572207A61B7
:10570000626C6F6B6F77616E790074656D70657236
:105710006174757279202E2E2E00506F637A656B3E
:10572000616A206E61207A6164616E6500726F7AD1
:1057300067727A616320656B7374727564657279E0
:10574000004B6C696B6E696A20616279207A6EC366
:10575000B3770049676E6F72756A206B6F6D2E208C
:105760004D3130362025466900506F7A79636A6181
:105770002053657277613A20256F53004175746F2D
:10578000706F7A696F6D6F772E3A20256C6C0050C0
:105790007265737320456E746572207768656E203C
:1057A000646F6E650066696C616D656E742077204C
:1057B000676F72652F646F6C00507265737320554C
:1057C0002F44204B657920746F206D6F7665005AE9
:1057D0006D69656E2066696C616D656E74005A6DE9
:1057E00069616E612066696C616D656E74750044F7
:1057F0006F726567756C756A205A3A256F596D6DC1
:105800000050727A657277696A2077796472756B75
:1058100000536C6F7742616E670044656164205489
:10582000696D6500576C2F57796C207A6173696CCC
:10583000616E6965006472756B6F77616E65005AA1
:10584000757A79746F2066696C616D656E74750028
:10585000437A61732070726163790020682E003A88
:105860000020646E692C20004472756B61726B615C
:1058700020676F746F7761004B61727461205344CD
:1058800020776C6F7A6F6E61004B61727461205388
:10589000442077796A65746100577973757720724F
:1058A0006F7A67727A65773A2558556D6D004D6944
:1058B0006E54656D70207779737577753A255854F5
:1058C000024300506F7A696F6D2064656C747900D3
:1058D0004F626C69637A20706F7A696F6D6F776160
:1058E0006E6961005573746177205033005573748D
:1058F0006177205032005573746177205031005A1F
:10590000206B616C69622E005573746177205A3D7B
:1059100030005A6572756A20706F6D69617200504F
:105920006F6B617A20706F6D6961720050727A6579
:10593000706C79772066696C616D2E3A256F6625EB
:10594000252500537A79626B6F7363206472756BDF
:1059500075203A256F6D25252500072565622F25C1
:1059600045620243207E256F620045333A25653249
:105970002F25453202437E256F320045323A256598
:10598000312F25453102437E256F310045313A25BF
:1059900065302F25453002437E256F300005256593
:1059A000632F2545630243207E256F4300427566C1
:1059B0006F723A256F42004C61646F77616E696562
:1059C0002E2E2E006F64637A7974616E61207A20C6
:1059D000454550524F4D004B6F6E66696775726159
:1059E000636A61007A61706973616E6120646F201F
:1059F000454550524F4D004B6F6E66696775726139
:105A0000636A610053696C6E696B692077796C61B8
:105A1000637A6F6E65005A6174727A796D616E791E
:105A20000047727A616E69652073746F6C75004708
:105A3000727A616E696520676C6F7769637900417E
:105A40006B636A613A256C61005049440044777584
:105A50007374616E6F7779004F6673657420592097
:105A6000203A255879004F66736574205820203AF3
:105A7000255878004D617820737465722E3A202580
:105A80005844004D61782049207761723A202558AA
:105A90004D004D696E2049207761723A2025586D7E
:105AA000005049442044202020203A2558640050CA
:105AB00049442049202020203A255869004D61782A
:105AC0002E2050574D203A25584400446561647497
:105AD000696D65203A2558700050494420502020B7
